{
	"contracts/forloop.sol": {
		"ExampleContract": {
			"abi": [
				{
					"inputs": [],
					"name": "addNumbers",
					"outputs": [
						{
							"internalType": "uint256",
							"name": "",
							"type": "uint256"
						}
					],
					"stateMutability": "pure",
					"type": "function"
				},
				{
					"inputs": [
						{
							"internalType": "uint256",
							"name": "x",
							"type": "uint256"
						}
					],
					"name": "findPrimenumbers",
					"outputs": [
						{
							"internalType": "uint256",
							"name": "",
							"type": "uint256"
						}
					],
					"stateMutability": "pure",
					"type": "function"
				}
			],
			"devdoc": {
				"kind": "dev",
				"methods": {},
				"version": 1
			},
			"evm": {
				"assembly": "    /* \"contracts/forloop.sol\":72:594  contract ExampleContract {... */\n  mstore(0x40, 0x80)\n  callvalue\n  dup1\n  iszero\n  tag_1\n  jumpi\n  0x00\n  dup1\n  revert\ntag_1:\n  pop\n  dataSize(sub_0)\n  dup1\n  dataOffset(sub_0)\n  0x00\n  codecopy\n  0x00\n  return\nstop\n\nsub_0: assembly {\n        /* \"contracts/forloop.sol\":72:594  contract ExampleContract {... */\n      mstore(0x40, 0x80)\n      callvalue\n      dup1\n      iszero\n      tag_1\n      jumpi\n      0x00\n      dup1\n      revert\n    tag_1:\n      pop\n      jumpi(tag_2, lt(calldatasize, 0x04))\n      shr(0xe0, calldataload(0x00))\n      dup1\n      0x69c113e1\n      eq\n      tag_3\n      jumpi\n      dup1\n      0xe77252cf\n      eq\n      tag_4\n      jumpi\n    tag_2:\n      0x00\n      dup1\n      revert\n        /* \"contracts/forloop.sol\":106:299  function addNumbers() public pure returns (uint256) {... */\n    tag_3:\n      tag_5\n      tag_6\n      jump\t// in\n    tag_5:\n      mload(0x40)\n      tag_7\n      swap2\n      swap1\n      tag_8\n      jump\t// in\n    tag_7:\n      mload(0x40)\n      dup1\n      swap2\n      sub\n      swap1\n      return\n        /* \"contracts/forloop.sol\":307:591  function findPrimenumbers(uint256 x) public pure returns (uint256) {... */\n    tag_4:\n      tag_9\n      0x04\n      dup1\n      calldatasize\n      sub\n      dup2\n      add\n      swap1\n      tag_10\n      swap2\n      swap1\n      tag_11\n      jump\t// in\n    tag_10:\n      tag_12\n      jump\t// in\n    tag_9:\n      mload(0x40)\n      tag_13\n      swap2\n      swap1\n      tag_8\n      jump\t// in\n    tag_13:\n      mload(0x40)\n      dup1\n      swap2\n      sub\n      swap1\n      return\n        /* \"contracts/forloop.sol\":106:299  function addNumbers() public pure returns (uint256) {... */\n    tag_6:\n        /* \"contracts/forloop.sol\":149:156  uint256 */\n      0x00\n        /* \"contracts/forloop.sol\":169:180  uint256 sum */\n      dup1\n        /* \"contracts/forloop.sol\":183:184  0 */\n      0x00\n        /* \"contracts/forloop.sol\":169:184  uint256 sum = 0 */\n      swap1\n      pop\n        /* \"contracts/forloop.sol\":200:209  uint256 i */\n      0x00\n        /* \"contracts/forloop.sol\":195:269  for (uint256 i = 0; i < 100; i++) {... */\n    tag_15:\n        /* \"contracts/forloop.sol\":219:222  100 */\n      0x64\n        /* \"contracts/forloop.sol\":215:216  i */\n      dup2\n        /* \"contracts/forloop.sol\":215:222  i < 100 */\n      lt\n        /* \"contracts/forloop.sol\":195:269  for (uint256 i = 0; i < 100; i++) {... */\n      iszero\n      tag_16\n      jumpi\n        /* \"contracts/forloop.sol\":256:257  i */\n      dup1\n        /* \"contracts/forloop.sol\":250:253  sum */\n      dup3\n        /* \"contracts/forloop.sol\":250:257  sum + i */\n      tag_18\n      swap2\n      swap1\n      tag_19\n      jump\t// in\n    tag_18:\n        /* \"contracts/forloop.sol\":244:257  sum = sum + i */\n      swap2\n      pop\n        /* \"contracts/forloop.sol\":224:227  i++ */\n      dup1\n      dup1\n      0x01\n      add\n      swap2\n      pop\n      pop\n        /* \"contracts/forloop.sol\":195:269  for (uint256 i = 0; i < 100; i++) {... */\n      jump(tag_15)\n    tag_16:\n      pop\n        /* \"contracts/forloop.sol\":288:291  sum */\n      dup1\n        /* \"contracts/forloop.sol\":281:291  return sum */\n      swap2\n      pop\n      pop\n        /* \"contracts/forloop.sol\":106:299  function addNumbers() public pure returns (uint256) {... */\n      swap1\n      jump\t// out\n        /* \"contracts/forloop.sol\":307:591  function findPrimenumbers(uint256 x) public pure returns (uint256) {... */\n    tag_12:\n        /* \"contracts/forloop.sol\":365:372  uint256 */\n      0x00\n        /* \"contracts/forloop.sol\":393:396  144 */\n      0x90\n        /* \"contracts/forloop.sol\":389:390  x */\n      dup3\n        /* \"contracts/forloop.sol\":389:396  x < 144 */\n      lt\n        /* \"contracts/forloop.sol\":385:433  if (x < 144) {... */\n      iszero\n      tag_21\n      jumpi\n        /* \"contracts/forloop.sol\":420:421  0 */\n      0x00\n        /* \"contracts/forloop.sol\":413:421  return 0 */\n      swap1\n      pop\n      jump(tag_20)\n        /* \"contracts/forloop.sol\":385:433  if (x < 144) {... */\n    tag_21:\n        /* \"contracts/forloop.sol\":447:456  uint256 i */\n      0x00\n        /* \"contracts/forloop.sol\":459:462  144 */\n      0x90\n        /* \"contracts/forloop.sol\":447:462  uint256 i = 144 */\n      swap1\n      pop\n        /* \"contracts/forloop.sol\":443:565  for(uint256 i = 144; i * i <= x; i++) {... */\n    tag_22:\n        /* \"contracts/forloop.sol\":473:474  x */\n      dup3\n        /* \"contracts/forloop.sol\":468:469  i */\n      dup2\n        /* \"contracts/forloop.sol\":464:465  i */\n      dup3\n        /* \"contracts/forloop.sol\":464:469  i * i */\n      tag_25\n      swap2\n      swap1\n      tag_26\n      jump\t// in\n    tag_25:\n        /* \"contracts/forloop.sol\":464:474  i * i <= x */\n      gt\n        /* \"contracts/forloop.sol\":443:565  for(uint256 i = 144; i * i <= x; i++) {... */\n      tag_23\n      jumpi\n        /* \"contracts/forloop.sol\":508:509  0 */\n      0x00\n        /* \"contracts/forloop.sol\":503:504  i */\n      dup2\n        /* \"contracts/forloop.sol\":499:500  x */\n      dup5\n        /* \"contracts/forloop.sol\":499:504  x % i */\n      tag_27\n      swap2\n      swap1\n      tag_28\n      jump\t// in\n    tag_27:\n        /* \"contracts/forloop.sol\":499:509  x % i == 0 */\n      sub\n        /* \"contracts/forloop.sol\":496:554  if(x % i == 0) {... */\n      tag_29\n      jumpi\n        /* \"contracts/forloop.sol\":537:538  i */\n      dup1\n        /* \"contracts/forloop.sol\":530:538  return i */\n      swap2\n      pop\n      pop\n      jump(tag_20)\n        /* \"contracts/forloop.sol\":496:554  if(x % i == 0) {... */\n    tag_29:\n        /* \"contracts/forloop.sol\":476:479  i++ */\n      dup1\n      dup1\n      tag_30\n      swap1\n      tag_31\n      jump\t// in\n    tag_30:\n      swap2\n      pop\n      pop\n        /* \"contracts/forloop.sol\":443:565  for(uint256 i = 144; i * i <= x; i++) {... */\n      jump(tag_22)\n    tag_23:\n      pop\n        /* \"contracts/forloop.sol\":582:583  x */\n      dup2\n        /* \"contracts/forloop.sol\":575:583  return x */\n      swap1\n      pop\n        /* \"contracts/forloop.sol\":307:591  function findPrimenumbers(uint256 x) public pure returns (uint256) {... */\n    tag_20:\n      swap2\n      swap1\n      pop\n      jump\t// out\n        /* \"#utility.yul\":7:84   */\n    tag_32:\n        /* \"#utility.yul\":44:51   */\n      0x00\n        /* \"#utility.yul\":73:78   */\n      dup2\n        /* \"#utility.yul\":62:78   */\n      swap1\n      pop\n        /* \"#utility.yul\":7:84   */\n      swap2\n      swap1\n      pop\n      jump\t// out\n        /* \"#utility.yul\":90:208   */\n    tag_33:\n        /* \"#utility.yul\":177:201   */\n      tag_44\n        /* \"#utility.yul\":195:200   */\n      dup2\n        /* \"#utility.yul\":177:201   */\n      tag_32\n      jump\t// in\n    tag_44:\n        /* \"#utility.yul\":172:175   */\n      dup3\n        /* \"#utility.yul\":165:202   */\n      mstore\n        /* \"#utility.yul\":90:208   */\n      pop\n      pop\n      jump\t// out\n        /* \"#utility.yul\":214:436   */\n    tag_8:\n        /* \"#utility.yul\":307:311   */\n      0x00\n        /* \"#utility.yul\":345:347   */\n      0x20\n        /* \"#utility.yul\":334:343   */\n      dup3\n        /* \"#utility.yul\":330:348   */\n      add\n        /* \"#utility.yul\":322:348   */\n      swap1\n      pop\n        /* \"#utility.yul\":358:429   */\n      tag_46\n        /* \"#utility.yul\":426:427   */\n      0x00\n        /* \"#utility.yul\":415:424   */\n      dup4\n        /* \"#utility.yul\":411:428   */\n      add\n        /* \"#utility.yul\":402:408   */\n      dup5\n        /* \"#utility.yul\":358:429   */\n      tag_33\n      jump\t// in\n    tag_46:\n        /* \"#utility.yul\":214:436   */\n      swap3\n      swap2\n      pop\n      pop\n      jump\t// out\n        /* \"#utility.yul\":523:640   */\n    tag_35:\n        /* \"#utility.yul\":632:633   */\n      0x00\n        /* \"#utility.yul\":629:630   */\n      dup1\n        /* \"#utility.yul\":622:634   */\n      revert\n        /* \"#utility.yul\":769:891   */\n    tag_37:\n        /* \"#utility.yul\":842:866   */\n      tag_51\n        /* \"#utility.yul\":860:865   */\n      dup2\n        /* \"#utility.yul\":842:866   */\n      tag_32\n      jump\t// in\n    tag_51:\n        /* \"#utility.yul\":835:840   */\n      dup2\n        /* \"#utility.yul\":832:867   */\n      eq\n        /* \"#utility.yul\":822:885   */\n      tag_52\n      jumpi\n        /* \"#utility.yul\":881:882   */\n      0x00\n        /* \"#utility.yul\":878:879   */\n      dup1\n        /* \"#utility.yul\":871:883   */\n      revert\n        /* \"#utility.yul\":822:885   */\n    tag_52:\n        /* \"#utility.yul\":769:891   */\n      pop\n      jump\t// out\n        /* \"#utility.yul\":897:1036   */\n    tag_38:\n        /* \"#utility.yul\":943:948   */\n      0x00\n        /* \"#utility.yul\":981:987   */\n      dup2\n        /* \"#utility.yul\":968:988   */\n      calldataload\n        /* \"#utility.yul\":959:988   */\n      swap1\n      pop\n        /* \"#utility.yul\":997:1030   */\n      tag_54\n        /* \"#utility.yul\":1024:1029   */\n      dup2\n        /* \"#utility.yul\":997:1030   */\n      tag_37\n      jump\t// in\n    tag_54:\n        /* \"#utility.yul\":897:1036   */\n      swap3\n      swap2\n      pop\n      pop\n      jump\t// out\n        /* \"#utility.yul\":1042:1371   */\n    tag_11:\n        /* \"#utility.yul\":1101:1107   */\n      0x00\n        /* \"#utility.yul\":1150:1152   */\n      0x20\n        /* \"#utility.yul\":1138:1147   */\n      dup3\n        /* \"#utility.yul\":1129:1136   */\n      dup5\n        /* \"#utility.yul\":1125:1148   */\n      sub\n        /* \"#utility.yul\":1121:1153   */\n      slt\n        /* \"#utility.yul\":1118:1237   */\n      iszero\n      tag_56\n      jumpi\n        /* \"#utility.yul\":1156:1235   */\n      tag_57\n      tag_35\n      jump\t// in\n    tag_57:\n        /* \"#utility.yul\":1118:1237   */\n    tag_56:\n        /* \"#utility.yul\":1276:1277   */\n      0x00\n        /* \"#utility.yul\":1301:1354   */\n      tag_58\n        /* \"#utility.yul\":1346:1353   */\n      dup5\n        /* \"#utility.yul\":1337:1343   */\n      dup3\n        /* \"#utility.yul\":1326:1335   */\n      dup6\n        /* \"#utility.yul\":1322:1344   */\n      add\n        /* \"#utility.yul\":1301:1354   */\n      tag_38\n      jump\t// in\n    tag_58:\n        /* \"#utility.yul\":1291:1354   */\n      swap2\n      pop\n        /* \"#utility.yul\":1247:1364   */\n      pop\n        /* \"#utility.yul\":1042:1371   */\n      swap3\n      swap2\n      pop\n      pop\n      jump\t// out\n        /* \"#utility.yul\":1377:1557   */\n    tag_39:\n        /* \"#utility.yul\":1425:1502   */\n      0x4e487b7100000000000000000000000000000000000000000000000000000000\n        /* \"#utility.yul\":1422:1423   */\n      0x00\n        /* \"#utility.yul\":1415:1503   */\n      mstore\n        /* \"#utility.yul\":1522:1526   */\n      0x11\n        /* \"#utility.yul\":1519:1520   */\n      0x04\n        /* \"#utility.yul\":1512:1527   */\n      mstore\n        /* \"#utility.yul\":1546:1550   */\n      0x24\n        /* \"#utility.yul\":1543:1544   */\n      0x00\n        /* \"#utility.yul\":1536:1551   */\n      revert\n        /* \"#utility.yul\":1563:1754   */\n    tag_19:\n        /* \"#utility.yul\":1603:1606   */\n      0x00\n        /* \"#utility.yul\":1622:1642   */\n      tag_61\n        /* \"#utility.yul\":1640:1641   */\n      dup3\n        /* \"#utility.yul\":1622:1642   */\n      tag_32\n      jump\t// in\n    tag_61:\n        /* \"#utility.yul\":1617:1642   */\n      swap2\n      pop\n        /* \"#utility.yul\":1656:1676   */\n      tag_62\n        /* \"#utility.yul\":1674:1675   */\n      dup4\n        /* \"#utility.yul\":1656:1676   */\n      tag_32\n      jump\t// in\n    tag_62:\n        /* \"#utility.yul\":1651:1676   */\n      swap3\n      pop\n        /* \"#utility.yul\":1699:1700   */\n      dup3\n        /* \"#utility.yul\":1696:1697   */\n      dup3\n        /* \"#utility.yul\":1692:1701   */\n      add\n        /* \"#utility.yul\":1685:1701   */\n      swap1\n      pop\n        /* \"#utility.yul\":1720:1723   */\n      dup1\n        /* \"#utility.yul\":1717:1718   */\n      dup3\n        /* \"#utility.yul\":1714:1724   */\n      gt\n        /* \"#utility.yul\":1711:1747   */\n      iszero\n      tag_63\n      jumpi\n        /* \"#utility.yul\":1727:1745   */\n      tag_64\n      tag_39\n      jump\t// in\n    tag_64:\n        /* \"#utility.yul\":1711:1747   */\n    tag_63:\n        /* \"#utility.yul\":1563:1754   */\n      swap3\n      swap2\n      pop\n      pop\n      jump\t// out\n        /* \"#utility.yul\":1760:2170   */\n    tag_26:\n        /* \"#utility.yul\":1800:1807   */\n      0x00\n        /* \"#utility.yul\":1823:1843   */\n      tag_66\n        /* \"#utility.yul\":1841:1842   */\n      dup3\n        /* \"#utility.yul\":1823:1843   */\n      tag_32\n      jump\t// in\n    tag_66:\n        /* \"#utility.yul\":1818:1843   */\n      swap2\n      pop\n        /* \"#utility.yul\":1857:1877   */\n      tag_67\n        /* \"#utility.yul\":1875:1876   */\n      dup4\n        /* \"#utility.yul\":1857:1877   */\n      tag_32\n      jump\t// in\n    tag_67:\n        /* \"#utility.yul\":1852:1877   */\n      swap3\n      pop\n        /* \"#utility.yul\":1912:1913   */\n      dup3\n        /* \"#utility.yul\":1909:1910   */\n      dup3\n        /* \"#utility.yul\":1905:1914   */\n      mul\n        /* \"#utility.yul\":1934:1964   */\n      tag_68\n        /* \"#utility.yul\":1952:1963   */\n      dup2\n        /* \"#utility.yul\":1934:1964   */\n      tag_32\n      jump\t// in\n    tag_68:\n        /* \"#utility.yul\":1923:1964   */\n      swap2\n      pop\n        /* \"#utility.yul\":2113:2114   */\n      dup3\n        /* \"#utility.yul\":2104:2111   */\n      dup3\n        /* \"#utility.yul\":2100:2115   */\n      div\n        /* \"#utility.yul\":2097:2098   */\n      dup5\n        /* \"#utility.yul\":2094:2116   */\n      eq\n        /* \"#utility.yul\":2074:2075   */\n      dup4\n        /* \"#utility.yul\":2067:2076   */\n      iszero\n        /* \"#utility.yul\":2047:2130   */\n      or\n        /* \"#utility.yul\":2024:2163   */\n      tag_69\n      jumpi\n        /* \"#utility.yul\":2143:2161   */\n      tag_70\n      tag_39\n      jump\t// in\n    tag_70:\n        /* \"#utility.yul\":2024:2163   */\n    tag_69:\n        /* \"#utility.yul\":1808:2170   */\n      pop\n        /* \"#utility.yul\":1760:2170   */\n      swap3\n      swap2\n      pop\n      pop\n      jump\t// out\n        /* \"#utility.yul\":2176:2356   */\n    tag_40:\n        /* \"#utility.yul\":2224:2301   */\n      0x4e487b7100000000000000000000000000000000000000000000000000000000\n        /* \"#utility.yul\":2221:2222   */\n      0x00\n        /* \"#utility.yul\":2214:2302   */\n      mstore\n        /* \"#utility.yul\":2321:2325   */\n      0x12\n        /* \"#utility.yul\":2318:2319   */\n      0x04\n        /* \"#utility.yul\":2311:2326   */\n      mstore\n        /* \"#utility.yul\":2345:2349   */\n      0x24\n        /* \"#utility.yul\":2342:2343   */\n      0x00\n        /* \"#utility.yul\":2335:2350   */\n      revert\n        /* \"#utility.yul\":2362:2538   */\n    tag_28:\n        /* \"#utility.yul\":2394:2395   */\n      0x00\n        /* \"#utility.yul\":2411:2431   */\n      tag_73\n        /* \"#utility.yul\":2429:2430   */\n      dup3\n        /* \"#utility.yul\":2411:2431   */\n      tag_32\n      jump\t// in\n    tag_73:\n        /* \"#utility.yul\":2406:2431   */\n      swap2\n      pop\n        /* \"#utility.yul\":2445:2465   */\n      tag_74\n        /* \"#utility.yul\":2463:2464   */\n      dup4\n        /* \"#utility.yul\":2445:2465   */\n      tag_32\n      jump\t// in\n    tag_74:\n        /* \"#utility.yul\":2440:2465   */\n      swap3\n      pop\n        /* \"#utility.yul\":2484:2485   */\n      dup3\n        /* \"#utility.yul\":2474:2509   */\n      tag_75\n      jumpi\n        /* \"#utility.yul\":2489:2507   */\n      tag_76\n      tag_40\n      jump\t// in\n    tag_76:\n        /* \"#utility.yul\":2474:2509   */\n    tag_75:\n        /* \"#utility.yul\":2530:2531   */\n      dup3\n        /* \"#utility.yul\":2527:2528   */\n      dup3\n        /* \"#utility.yul\":2523:2532   */\n      mod\n        /* \"#utility.yul\":2518:2532   */\n      swap1\n      pop\n        /* \"#utility.yul\":2362:2538   */\n      swap3\n      swap2\n      pop\n      pop\n      jump\t// out\n        /* \"#utility.yul\":2544:2777   */\n    tag_31:\n        /* \"#utility.yul\":2583:2586   */\n      0x00\n        /* \"#utility.yul\":2606:2630   */\n      tag_78\n        /* \"#utility.yul\":2624:2629   */\n      dup3\n        /* \"#utility.yul\":2606:2630   */\n      tag_32\n      jump\t// in\n    tag_78:\n        /* \"#utility.yul\":2597:2630   */\n      swap2\n      pop\n        /* \"#utility.yul\":2652:2718   */\n      0xffffffffffffffffffffffffffffffffffffffffffffffffffffffffffffffff\n        /* \"#utility.yul\":2645:2650   */\n      dup3\n        /* \"#utility.yul\":2642:2719   */\n      sub\n        /* \"#utility.yul\":2639:2742   */\n      tag_79\n      jumpi\n        /* \"#utility.yul\":2722:2740   */\n      tag_80\n      tag_39\n      jump\t// in\n    tag_80:\n        /* \"#utility.yul\":2639:2742   */\n    tag_79:\n        /* \"#utility.yul\":2769:2770   */\n      0x01\n        /* \"#utility.yul\":2762:2767   */\n      dup3\n        /* \"#utility.yul\":2758:2771   */\n      add\n        /* \"#utility.yul\":2751:2771   */\n      swap1\n      pop\n        /* \"#utility.yul\":2544:2777   */\n      swap2\n      swap1\n      pop\n      jump\t// out\n\n    auxdata: 0xa26469706673582212207848ddb7e05f8b7a5af4ffb928c53692af678bee7d6cbd3847f7cbbbd9085ced64736f6c63430008190033\n}\n",
				"bytecode": {
					"linkReferences": {},
					"object": "6080604052348015600e575f80fd5b506103208061001c5f395ff3fe608060405234801561000f575f80fd5b5060043610610034575f3560e01c806369c113e114610038578063e77252cf14610056575b5f80fd5b610040610086565b60405161004d9190610133565b60405180910390f35b610070600480360381019061006b919061017a565b6100b9565b60405161007d9190610133565b60405180910390f35b5f805f90505f5b60648110156100b15780826100a291906101d2565b9150808060010191505061008d565b508091505090565b5f60908210156100cb575f9050610116565b5f609090505b8281826100de9190610205565b11610111575f81846100f09190610273565b036100fe5780915050610116565b8080610109906102a3565b9150506100d1565b508190505b919050565b5f819050919050565b61012d8161011b565b82525050565b5f6020820190506101465f830184610124565b92915050565b5f80fd5b6101598161011b565b8114610163575f80fd5b50565b5f8135905061017481610150565b92915050565b5f6020828403121561018f5761018e61014c565b5b5f61019c84828501610166565b91505092915050565b7f4e487b71000000000000000000000000000000000000000000000000000000005f52601160045260245ffd5b5f6101dc8261011b565b91506101e78361011b565b92508282019050808211156101ff576101fe6101a5565b5b92915050565b5f61020f8261011b565b915061021a8361011b565b92508282026102288161011b565b9150828204841483151761023f5761023e6101a5565b5b5092915050565b7f4e487b71000000000000000000000000000000000000000000000000000000005f52601260045260245ffd5b5f61027d8261011b565b91506102888361011b565b92508261029857610297610246565b5b828206905092915050565b5f6102ad8261011b565b91507fffffffffffffffffffffffffffffffffffffffffffffffffffffffffffffffff82036102df576102de6101a5565b5b60018201905091905056fea26469706673582212207848ddb7e05f8b7a5af4ffb928c53692af678bee7d6cbd3847f7cbbbd9085ced64736f6c63430008190033",
					"opcodes": "PUSH1 0x80 PUSH1 0x40 MSTORE CALLVALUE DUP1 ISZERO PUSH1 0xE JUMPI PUSH0 DUP1 REVERT JUMPDEST POP PUSH2 0x320 DUP1 PUSH2 0x1C PUSH0 CODECOPY PUSH0 RETURN INVALID PUSH1 0x80 PUSH1 0x40 MSTORE CALLVALUE DUP1 ISZERO PUSH2 0xF JUMPI PUSH0 DUP1 REVERT JUMPDEST POP PUSH1 0x4 CALLDATASIZE LT PUSH2 0x34 JUMPI PUSH0 CALLDATALOAD PUSH1 0xE0 SHR DUP1 PUSH4 0x69C113E1 EQ PUSH2 0x38 JUMPI DUP1 PUSH4 0xE77252CF EQ PUSH2 0x56 JUMPI JUMPDEST PUSH0 DUP1 REVERT JUMPDEST PUSH2 0x40 PUSH2 0x86 JUMP JUMPDEST PUSH1 0x40 MLOAD PUSH2 0x4D SWAP2 SWAP1 PUSH2 0x133 JUMP JUMPDEST PUSH1 0x40 MLOAD DUP1 SWAP2 SUB SWAP1 RETURN JUMPDEST PUSH2 0x70 PUSH1 0x4 DUP1 CALLDATASIZE SUB DUP2 ADD SWAP1 PUSH2 0x6B SWAP2 SWAP1 PUSH2 0x17A JUMP JUMPDEST PUSH2 0xB9 JUMP JUMPDEST PUSH1 0x40 MLOAD PUSH2 0x7D SWAP2 SWAP1 PUSH2 0x133 JUMP JUMPDEST PUSH1 0x40 MLOAD DUP1 SWAP2 SUB SWAP1 RETURN JUMPDEST PUSH0 DUP1 PUSH0 SWAP1 POP PUSH0 JUMPDEST PUSH1 0x64 DUP2 LT ISZERO PUSH2 0xB1 JUMPI DUP1 DUP3 PUSH2 0xA2 SWAP2 SWAP1 PUSH2 0x1D2 JUMP JUMPDEST SWAP2 POP DUP1 DUP1 PUSH1 0x1 ADD SWAP2 POP POP PUSH2 0x8D JUMP JUMPDEST POP DUP1 SWAP2 POP POP SWAP1 JUMP JUMPDEST PUSH0 PUSH1 0x90 DUP3 LT ISZERO PUSH2 0xCB JUMPI PUSH0 SWAP1 POP PUSH2 0x116 JUMP JUMPDEST PUSH0 PUSH1 0x90 SWAP1 POP JUMPDEST DUP3 DUP2 DUP3 PUSH2 0xDE SWAP2 SWAP1 PUSH2 0x205 JUMP JUMPDEST GT PUSH2 0x111 JUMPI PUSH0 DUP2 DUP5 PUSH2 0xF0 SWAP2 SWAP1 PUSH2 0x273 JUMP JUMPDEST SUB PUSH2 0xFE JUMPI DUP1 SWAP2 POP POP PUSH2 0x116 JUMP JUMPDEST DUP1 DUP1 PUSH2 0x109 SWAP1 PUSH2 0x2A3 JUMP JUMPDEST SWAP2 POP POP PUSH2 0xD1 JUMP JUMPDEST POP DUP2 SWAP1 POP JUMPDEST SWAP2 SWAP1 POP JUMP JUMPDEST PUSH0 DUP2 SWAP1 POP SWAP2 SWAP1 POP JUMP JUMPDEST PUSH2 0x12D DUP2 PUSH2 0x11B JUMP JUMPDEST DUP3 MSTORE POP POP JUMP JUMPDEST PUSH0 PUSH1 0x20 DUP3 ADD SWAP1 POP PUSH2 0x146 PUSH0 DUP4 ADD DUP5 PUSH2 0x124 JUMP JUMPDEST SWAP3 SWAP2 POP POP JUMP JUMPDEST PUSH0 DUP1 REVERT JUMPDEST PUSH2 0x159 DUP2 PUSH2 0x11B JUMP JUMPDEST DUP2 EQ PUSH2 0x163 JUMPI PUSH0 DUP1 REVERT JUMPDEST POP JUMP JUMPDEST PUSH0 DUP2 CALLDATALOAD SWAP1 POP PUSH2 0x174 DUP2 PUSH2 0x150 JUMP JUMPDEST SWAP3 SWAP2 POP POP JUMP JUMPDEST PUSH0 PUSH1 0x20 DUP3 DUP5 SUB SLT ISZERO PUSH2 0x18F JUMPI PUSH2 0x18E PUSH2 0x14C JUMP JUMPDEST JUMPDEST PUSH0 PUSH2 0x19C DUP5 DUP3 DUP6 ADD PUSH2 0x166 JUMP JUMPDEST SWAP2 POP POP SWAP3 SWAP2 POP POP JUMP JUMPDEST PUSH32 0x4E487B7100000000000000000000000000000000000000000000000000000000 PUSH0 MSTORE PUSH1 0x11 PUSH1 0x4 MSTORE PUSH1 0x24 PUSH0 REVERT JUMPDEST PUSH0 PUSH2 0x1DC DUP3 PUSH2 0x11B JUMP JUMPDEST SWAP2 POP PUSH2 0x1E7 DUP4 PUSH2 0x11B JUMP JUMPDEST SWAP3 POP DUP3 DUP3 ADD SWAP1 POP DUP1 DUP3 GT ISZERO PUSH2 0x1FF JUMPI PUSH2 0x1FE PUSH2 0x1A5 JUMP JUMPDEST JUMPDEST SWAP3 SWAP2 POP POP JUMP JUMPDEST PUSH0 PUSH2 0x20F DUP3 PUSH2 0x11B JUMP JUMPDEST SWAP2 POP PUSH2 0x21A DUP4 PUSH2 0x11B JUMP JUMPDEST SWAP3 POP DUP3 DUP3 MUL PUSH2 0x228 DUP2 PUSH2 0x11B JUMP JUMPDEST SWAP2 POP DUP3 DUP3 DIV DUP5 EQ DUP4 ISZERO OR PUSH2 0x23F JUMPI PUSH2 0x23E PUSH2 0x1A5 JUMP JUMPDEST JUMPDEST POP SWAP3 SWAP2 POP POP JUMP JUMPDEST PUSH32 0x4E487B7100000000000000000000000000000000000000000000000000000000 PUSH0 MSTORE PUSH1 0x12 PUSH1 0x4 MSTORE PUSH1 0x24 PUSH0 REVERT JUMPDEST PUSH0 PUSH2 0x27D DUP3 PUSH2 0x11B JUMP JUMPDEST SWAP2 POP PUSH2 0x288 DUP4 PUSH2 0x11B JUMP JUMPDEST SWAP3 POP DUP3 PUSH2 0x298 JUMPI PUSH2 0x297 PUSH2 0x246 JUMP JUMPDEST JUMPDEST DUP3 DUP3 MOD SWAP1 POP SWAP3 SWAP2 POP POP JUMP JUMPDEST PUSH0 PUSH2 0x2AD DUP3 PUSH2 0x11B JUMP JUMPDEST SWAP2 POP PUSH32 0xFFFFFFFFFFFFFFFFFFFFFFFFFFFFFFFFFFFFFFFFFFFFFFFFFFFFFFFFFFFFFFFF DUP3 SUB PUSH2 0x2DF JUMPI PUSH2 0x2DE PUSH2 0x1A5 JUMP JUMPDEST JUMPDEST PUSH1 0x1 DUP3 ADD SWAP1 POP SWAP2 SWAP1 POP JUMP INVALID LOG2 PUSH5 0x6970667358 0x22 SLT KECCAK256 PUSH25 0x48DDB7E05F8B7A5AF4FFB928C53692AF678BEE7D6CBD3847F7 0xCB 0xBB 0xD9 ADDMOD TLOAD 0xED PUSH5 0x736F6C6343 STOP ADDMOD NOT STOP CALLER "
				},
				"gasEstimates": {
					"creation": {
						"codeDepositCost": "160000",
						"executionCost": "200",
						"totalCost": "160200"
					},
					"external": {
						"addNumbers()": "infinite",
						"findPrimenumbers(uint256)": "infinite"
					}
				},
				"methodIdentifiers": {
					"addNumbers()": "69c113e1",
					"findPrimenumbers(uint256)": "e77252cf"
				}
			},
			"storageLayout": {
				"storage": [],
				"types": null
			},
			"userdoc": {
				"kind": "user",
				"methods": {},
				"version": 1
			}
		}
	}
}