{
	"contracts/nested.sol": {
		"ExampleContract": {
			"abi": [
				{
					"inputs": [
						{
							"internalType": "uint256[][]",
							"name": "nestedArray",
							"type": "uint256[][]"
						}
					],
					"name": "containsAThree",
					"outputs": [
						{
							"internalType": "bool",
							"name": "",
							"type": "bool"
						}
					],
					"stateMutability": "pure",
					"type": "function"
				}
			],
			"devdoc": {
				"kind": "dev",
				"methods": {},
				"version": 1
			},
			"evm": {
				"assembly": "    /* \"contracts/nested.sol\":72:480  contract ExampleContract {... */\n  mstore(0x40, 0x80)\n  callvalue\n  dup1\n  iszero\n  tag_1\n  jumpi\n  0x00\n  dup1\n  revert\ntag_1:\n  pop\n  dataSize(sub_0)\n  dup1\n  dataOffset(sub_0)\n  0x00\n  codecopy\n  0x00\n  return\nstop\n\nsub_0: assembly {\n        /* \"contracts/nested.sol\":72:480  contract ExampleContract {... */\n      mstore(0x40, 0x80)\n      callvalue\n      dup1\n      iszero\n      tag_1\n      jumpi\n      0x00\n      dup1\n      revert\n    tag_1:\n      pop\n      jumpi(tag_2, lt(calldatasize, 0x04))\n      shr(0xe0, calldataload(0x00))\n      dup1\n      0x998b0864\n      eq\n      tag_3\n      jumpi\n    tag_2:\n      0x00\n      dup1\n      revert\n        /* \"contracts/nested.sol\":106:477  function containsAThree(uint256[][] calldata nestedArray) public pure returns (bool) {... */\n    tag_3:\n      tag_4\n      0x04\n      dup1\n      calldatasize\n      sub\n      dup2\n      add\n      swap1\n      tag_5\n      swap2\n      swap1\n      tag_6\n      jump\t// in\n    tag_5:\n      tag_7\n      jump\t// in\n    tag_4:\n      mload(0x40)\n      tag_8\n      swap2\n      swap1\n      tag_9\n      jump\t// in\n    tag_8:\n      mload(0x40)\n      dup1\n      swap2\n      sub\n      swap1\n      return\n    tag_7:\n        /* \"contracts/nested.sol\":185:189  bool */\n      0x00\n        /* \"contracts/nested.sol\":209:218  uint256 i */\n      dup1\n        /* \"contracts/nested.sol\":221:222  0 */\n      0x00\n        /* \"contracts/nested.sol\":209:222  uint256 i = 0 */\n      swap1\n      pop\n        /* \"contracts/nested.sol\":204:447  for (uint256 i = 0; i < nestedArray.length; i++) {... */\n    tag_11:\n        /* \"contracts/nested.sol\":228:239  nestedArray */\n      dup4\n      dup4\n        /* \"contracts/nested.sol\":228:246  nestedArray.length */\n      swap1\n      pop\n        /* \"contracts/nested.sol\":224:225  i */\n      dup2\n        /* \"contracts/nested.sol\":224:246  i < nestedArray.length */\n      lt\n        /* \"contracts/nested.sol\":204:447  for (uint256 i = 0; i < nestedArray.length; i++) {... */\n      iszero\n      tag_12\n      jumpi\n        /* \"contracts/nested.sol\":273:282  uint256 j */\n      0x00\n        /* \"contracts/nested.sol\":268:436  for (uint256 j = 0; j < nestedArray[0].length; j++) {... */\n    tag_14:\n        /* \"contracts/nested.sol\":292:303  nestedArray */\n      dup5\n      dup5\n        /* \"contracts/nested.sol\":304:305  0 */\n      0x00\n        /* \"contracts/nested.sol\":292:306  nestedArray[0] */\n      dup2\n      dup2\n      lt\n      tag_17\n      jumpi\n      tag_18\n      tag_19\n      jump\t// in\n    tag_18:\n    tag_17:\n      swap1\n      pop\n      0x20\n      mul\n      dup2\n      add\n      swap1\n      tag_20\n      swap2\n      swap1\n      tag_21\n      jump\t// in\n    tag_20:\n        /* \"contracts/nested.sol\":292:313  nestedArray[0].length */\n      swap1\n      pop\n        /* \"contracts/nested.sol\":288:289  j */\n      dup2\n        /* \"contracts/nested.sol\":288:313  j < nestedArray[0].length */\n      lt\n        /* \"contracts/nested.sol\":268:436  for (uint256 j = 0; j < nestedArray[0].length; j++) {... */\n      iszero\n      tag_15\n      jumpi\n        /* \"contracts/nested.sol\":364:365  3 */\n      0x03\n        /* \"contracts/nested.sol\":343:354  nestedArray */\n      dup6\n      dup6\n        /* \"contracts/nested.sol\":355:356  i */\n      dup5\n        /* \"contracts/nested.sol\":343:357  nestedArray[i] */\n      dup2\n      dup2\n      lt\n      tag_22\n      jumpi\n      tag_23\n      tag_19\n      jump\t// in\n    tag_23:\n    tag_22:\n      swap1\n      pop\n      0x20\n      mul\n      dup2\n      add\n      swap1\n      tag_24\n      swap2\n      swap1\n      tag_21\n      jump\t// in\n    tag_24:\n        /* \"contracts/nested.sol\":358:359  j */\n      dup4\n        /* \"contracts/nested.sol\":343:360  nestedArray[i][j] */\n      dup2\n      dup2\n      lt\n      tag_25\n      jumpi\n      tag_26\n      tag_19\n      jump\t// in\n    tag_26:\n    tag_25:\n      swap1\n      pop\n      0x20\n      mul\n      add\n      calldataload\n        /* \"contracts/nested.sol\":343:365  nestedArray[i][j] == 3 */\n      sub\n        /* \"contracts/nested.sol\":339:421  if (nestedArray[i][j] == 3) {... */\n      tag_27\n      jumpi\n        /* \"contracts/nested.sol\":397:401  true */\n      0x01\n        /* \"contracts/nested.sol\":390:401  return true */\n      swap3\n      pop\n      pop\n      pop\n      jump(tag_10)\n        /* \"contracts/nested.sol\":339:421  if (nestedArray[i][j] == 3) {... */\n    tag_27:\n        /* \"contracts/nested.sol\":315:318  j++ */\n      dup1\n      dup1\n      0x01\n      add\n      swap2\n      pop\n      pop\n        /* \"contracts/nested.sol\":268:436  for (uint256 j = 0; j < nestedArray[0].length; j++) {... */\n      jump(tag_14)\n    tag_15:\n      pop\n        /* \"contracts/nested.sol\":248:251  i++ */\n      dup1\n      dup1\n      0x01\n      add\n      swap2\n      pop\n      pop\n        /* \"contracts/nested.sol\":204:447  for (uint256 i = 0; i < nestedArray.length; i++) {... */\n      jump(tag_11)\n    tag_12:\n      pop\n        /* \"contracts/nested.sol\":464:469  false */\n      0x00\n        /* \"contracts/nested.sol\":457:469  return false */\n      swap1\n      pop\n        /* \"contracts/nested.sol\":106:477  function containsAThree(uint256[][] calldata nestedArray) public pure returns (bool) {... */\n    tag_10:\n      swap3\n      swap2\n      pop\n      pop\n      jump\t// out\n        /* \"#utility.yul\":88:205   */\n    tag_29:\n        /* \"#utility.yul\":197:198   */\n      0x00\n        /* \"#utility.yul\":194:195   */\n      dup1\n        /* \"#utility.yul\":187:199   */\n      revert\n        /* \"#utility.yul\":211:328   */\n    tag_30:\n        /* \"#utility.yul\":320:321   */\n      0x00\n        /* \"#utility.yul\":317:318   */\n      dup1\n        /* \"#utility.yul\":310:322   */\n      revert\n        /* \"#utility.yul\":334:451   */\n    tag_31:\n        /* \"#utility.yul\":443:444   */\n      0x00\n        /* \"#utility.yul\":440:441   */\n      dup1\n        /* \"#utility.yul\":433:445   */\n      revert\n        /* \"#utility.yul\":457:574   */\n    tag_32:\n        /* \"#utility.yul\":566:567   */\n      0x00\n        /* \"#utility.yul\":563:564   */\n      dup1\n        /* \"#utility.yul\":556:568   */\n      revert\n        /* \"#utility.yul\":580:697   */\n    tag_33:\n        /* \"#utility.yul\":689:690   */\n      0x00\n        /* \"#utility.yul\":686:687   */\n      dup1\n        /* \"#utility.yul\":679:691   */\n      revert\n        /* \"#utility.yul\":722:1317   */\n    tag_34:\n        /* \"#utility.yul\":822:830   */\n      0x00\n        /* \"#utility.yul\":832:838   */\n      dup1\n        /* \"#utility.yul\":882:885   */\n      dup4\n        /* \"#utility.yul\":875:879   */\n      0x1f\n        /* \"#utility.yul\":867:873   */\n      dup5\n        /* \"#utility.yul\":863:880   */\n      add\n        /* \"#utility.yul\":859:886   */\n      slt\n        /* \"#utility.yul\":849:971   */\n      tag_48\n      jumpi\n        /* \"#utility.yul\":890:969   */\n      tag_49\n      tag_31\n      jump\t// in\n    tag_49:\n        /* \"#utility.yul\":849:971   */\n    tag_48:\n        /* \"#utility.yul\":1003:1009   */\n      dup3\n        /* \"#utility.yul\":990:1010   */\n      calldataload\n        /* \"#utility.yul\":980:1010   */\n      swap1\n      pop\n        /* \"#utility.yul\":1033:1051   */\n      0xffffffffffffffff\n        /* \"#utility.yul\":1025:1031   */\n      dup2\n        /* \"#utility.yul\":1022:1052   */\n      gt\n        /* \"#utility.yul\":1019:1136   */\n      iszero\n      tag_50\n      jumpi\n        /* \"#utility.yul\":1055:1134   */\n      tag_51\n      tag_32\n      jump\t// in\n    tag_51:\n        /* \"#utility.yul\":1019:1136   */\n    tag_50:\n        /* \"#utility.yul\":1169:1173   */\n      0x20\n        /* \"#utility.yul\":1161:1167   */\n      dup4\n        /* \"#utility.yul\":1157:1174   */\n      add\n        /* \"#utility.yul\":1145:1174   */\n      swap2\n      pop\n        /* \"#utility.yul\":1223:1226   */\n      dup4\n        /* \"#utility.yul\":1215:1219   */\n      0x20\n        /* \"#utility.yul\":1207:1213   */\n      dup3\n        /* \"#utility.yul\":1203:1220   */\n      mul\n        /* \"#utility.yul\":1193:1201   */\n      dup4\n        /* \"#utility.yul\":1189:1221   */\n      add\n        /* \"#utility.yul\":1186:1227   */\n      gt\n        /* \"#utility.yul\":1183:1311   */\n      iszero\n      tag_52\n      jumpi\n        /* \"#utility.yul\":1230:1309   */\n      tag_53\n      tag_33\n      jump\t// in\n    tag_53:\n        /* \"#utility.yul\":1183:1311   */\n    tag_52:\n        /* \"#utility.yul\":722:1317   */\n      swap3\n      pop\n      swap3\n      swap1\n      pop\n      jump\t// out\n        /* \"#utility.yul\":1323:1936   */\n    tag_6:\n        /* \"#utility.yul\":1436:1442   */\n      0x00\n        /* \"#utility.yul\":1444:1450   */\n      dup1\n        /* \"#utility.yul\":1493:1495   */\n      0x20\n        /* \"#utility.yul\":1481:1490   */\n      dup4\n        /* \"#utility.yul\":1472:1479   */\n      dup6\n        /* \"#utility.yul\":1468:1491   */\n      sub\n        /* \"#utility.yul\":1464:1496   */\n      slt\n        /* \"#utility.yul\":1461:1580   */\n      iszero\n      tag_55\n      jumpi\n        /* \"#utility.yul\":1499:1578   */\n      tag_56\n      tag_29\n      jump\t// in\n    tag_56:\n        /* \"#utility.yul\":1461:1580   */\n    tag_55:\n        /* \"#utility.yul\":1647:1648   */\n      0x00\n        /* \"#utility.yul\":1636:1645   */\n      dup4\n        /* \"#utility.yul\":1632:1649   */\n      add\n        /* \"#utility.yul\":1619:1650   */\n      calldataload\n        /* \"#utility.yul\":1677:1695   */\n      0xffffffffffffffff\n        /* \"#utility.yul\":1669:1675   */\n      dup2\n        /* \"#utility.yul\":1666:1696   */\n      gt\n        /* \"#utility.yul\":1663:1780   */\n      iszero\n      tag_57\n      jumpi\n        /* \"#utility.yul\":1699:1778   */\n      tag_58\n      tag_30\n      jump\t// in\n    tag_58:\n        /* \"#utility.yul\":1663:1780   */\n    tag_57:\n        /* \"#utility.yul\":1812:1919   */\n      tag_59\n        /* \"#utility.yul\":1911:1918   */\n      dup6\n        /* \"#utility.yul\":1902:1908   */\n      dup3\n        /* \"#utility.yul\":1891:1900   */\n      dup7\n        /* \"#utility.yul\":1887:1909   */\n      add\n        /* \"#utility.yul\":1812:1919   */\n      tag_34\n      jump\t// in\n    tag_59:\n        /* \"#utility.yul\":1794:1919   */\n      swap3\n      pop\n      swap3\n      pop\n        /* \"#utility.yul\":1590:1929   */\n      pop\n        /* \"#utility.yul\":1323:1936   */\n      swap3\n      pop\n      swap3\n      swap1\n      pop\n      jump\t// out\n        /* \"#utility.yul\":1942:2032   */\n    tag_35:\n        /* \"#utility.yul\":1976:1983   */\n      0x00\n        /* \"#utility.yul\":2019:2024   */\n      dup2\n        /* \"#utility.yul\":2012:2025   */\n      iszero\n        /* \"#utility.yul\":2005:2026   */\n      iszero\n        /* \"#utility.yul\":1994:2026   */\n      swap1\n      pop\n        /* \"#utility.yul\":1942:2032   */\n      swap2\n      swap1\n      pop\n      jump\t// out\n        /* \"#utility.yul\":2038:2147   */\n    tag_36:\n        /* \"#utility.yul\":2119:2140   */\n      tag_62\n        /* \"#utility.yul\":2134:2139   */\n      dup2\n        /* \"#utility.yul\":2119:2140   */\n      tag_35\n      jump\t// in\n    tag_62:\n        /* \"#utility.yul\":2114:2117   */\n      dup3\n        /* \"#utility.yul\":2107:2141   */\n      mstore\n        /* \"#utility.yul\":2038:2147   */\n      pop\n      pop\n      jump\t// out\n        /* \"#utility.yul\":2153:2363   */\n    tag_9:\n        /* \"#utility.yul\":2240:2244   */\n      0x00\n        /* \"#utility.yul\":2278:2280   */\n      0x20\n        /* \"#utility.yul\":2267:2276   */\n      dup3\n        /* \"#utility.yul\":2263:2281   */\n      add\n        /* \"#utility.yul\":2255:2281   */\n      swap1\n      pop\n        /* \"#utility.yul\":2291:2356   */\n      tag_64\n        /* \"#utility.yul\":2353:2354   */\n      0x00\n        /* \"#utility.yul\":2342:2351   */\n      dup4\n        /* \"#utility.yul\":2338:2355   */\n      add\n        /* \"#utility.yul\":2329:2335   */\n      dup5\n        /* \"#utility.yul\":2291:2356   */\n      tag_36\n      jump\t// in\n    tag_64:\n        /* \"#utility.yul\":2153:2363   */\n      swap3\n      swap2\n      pop\n      pop\n      jump\t// out\n        /* \"#utility.yul\":2369:2549   */\n    tag_19:\n        /* \"#utility.yul\":2417:2494   */\n      0x4e487b7100000000000000000000000000000000000000000000000000000000\n        /* \"#utility.yul\":2414:2415   */\n      0x00\n        /* \"#utility.yul\":2407:2495   */\n      mstore\n        /* \"#utility.yul\":2514:2518   */\n      0x32\n        /* \"#utility.yul\":2511:2512   */\n      0x04\n        /* \"#utility.yul\":2504:2519   */\n      mstore\n        /* \"#utility.yul\":2538:2542   */\n      0x24\n        /* \"#utility.yul\":2535:2536   */\n      0x00\n        /* \"#utility.yul\":2528:2543   */\n      revert\n        /* \"#utility.yul\":2555:2672   */\n    tag_37:\n        /* \"#utility.yul\":2664:2665   */\n      0x00\n        /* \"#utility.yul\":2661:2662   */\n      dup1\n        /* \"#utility.yul\":2654:2666   */\n      revert\n        /* \"#utility.yul\":2678:2795   */\n    tag_38:\n        /* \"#utility.yul\":2787:2788   */\n      0x00\n        /* \"#utility.yul\":2784:2785   */\n      dup1\n        /* \"#utility.yul\":2777:2789   */\n      revert\n        /* \"#utility.yul\":2801:2918   */\n    tag_39:\n        /* \"#utility.yul\":2910:2911   */\n      0x00\n        /* \"#utility.yul\":2907:2908   */\n      dup1\n        /* \"#utility.yul\":2900:2912   */\n      revert\n        /* \"#utility.yul\":2924:3664   */\n    tag_21:\n        /* \"#utility.yul\":3017:3021   */\n      0x00\n        /* \"#utility.yul\":3023:3029   */\n      dup1\n        /* \"#utility.yul\":3079:3090   */\n      dup4\n        /* \"#utility.yul\":3066:3091   */\n      calldataload\n        /* \"#utility.yul\":3179:3180   */\n      0x01\n        /* \"#utility.yul\":3173:3177   */\n      0x20\n        /* \"#utility.yul\":3169:3181   */\n      sub\n        /* \"#utility.yul\":3158:3166   */\n      dup5\n        /* \"#utility.yul\":3142:3156   */\n      calldatasize\n        /* \"#utility.yul\":3138:3167   */\n      sub\n        /* \"#utility.yul\":3134:3182   */\n      sub\n        /* \"#utility.yul\":3114:3132   */\n      dup2\n        /* \"#utility.yul\":3110:3183   */\n      slt\n        /* \"#utility.yul\":3100:3268   */\n      tag_70\n      jumpi\n        /* \"#utility.yul\":3187:3266   */\n      tag_71\n      tag_37\n      jump\t// in\n    tag_71:\n        /* \"#utility.yul\":3100:3268   */\n    tag_70:\n        /* \"#utility.yul\":3299:3317   */\n      dup1\n        /* \"#utility.yul\":3289:3297   */\n      dup5\n        /* \"#utility.yul\":3285:3318   */\n      add\n        /* \"#utility.yul\":3277:3318   */\n      swap3\n      pop\n        /* \"#utility.yul\":3351:3355   */\n      dup3\n        /* \"#utility.yul\":3338:3356   */\n      calldataload\n        /* \"#utility.yul\":3328:3356   */\n      swap2\n      pop\n        /* \"#utility.yul\":3379:3397   */\n      0xffffffffffffffff\n        /* \"#utility.yul\":3371:3377   */\n      dup3\n        /* \"#utility.yul\":3368:3398   */\n      gt\n        /* \"#utility.yul\":3365:3482   */\n      iszero\n      tag_72\n      jumpi\n        /* \"#utility.yul\":3401:3480   */\n      tag_73\n      tag_38\n      jump\t// in\n    tag_73:\n        /* \"#utility.yul\":3365:3482   */\n    tag_72:\n        /* \"#utility.yul\":3509:3511   */\n      0x20\n        /* \"#utility.yul\":3503:3507   */\n      dup4\n        /* \"#utility.yul\":3499:3512   */\n      add\n        /* \"#utility.yul\":3491:3512   */\n      swap3\n      pop\n        /* \"#utility.yul\":3566:3570   */\n      0x20\n        /* \"#utility.yul\":3558:3564   */\n      dup3\n        /* \"#utility.yul\":3554:3571   */\n      mul\n        /* \"#utility.yul\":3538:3552   */\n      calldatasize\n        /* \"#utility.yul\":3534:3572   */\n      sub\n        /* \"#utility.yul\":3528:3532   */\n      dup4\n        /* \"#utility.yul\":3524:3573   */\n      sgt\n        /* \"#utility.yul\":3521:3657   */\n      iszero\n      tag_74\n      jumpi\n        /* \"#utility.yul\":3576:3655   */\n      tag_75\n      tag_39\n      jump\t// in\n    tag_75:\n        /* \"#utility.yul\":3521:3657   */\n    tag_74:\n        /* \"#utility.yul\":3030:3664   */\n      pop\n        /* \"#utility.yul\":2924:3664   */\n      swap3\n      pop\n      swap3\n      swap1\n      pop\n      jump\t// out\n\n    auxdata: 0xa2646970667358221220bfa1b589bd9b0064ad43bca9ec3c10b8ffff2b3a877917deac735e67ce5e22ef64736f6c63430008190033\n}\n",
				"bytecode": {
					"linkReferences": {},
					"object": "6080604052348015600e575f80fd5b506102cb8061001c5f395ff3fe608060405234801561000f575f80fd5b5060043610610029575f3560e01c8063998b08641461002d575b5f80fd5b6100476004803603810190610042919061017c565b61005d565b60405161005491906101e1565b60405180910390f35b5f805f90505b83839050811015610108575f5b84845f818110610083576100826101fa565b5b90506020028101906100959190610233565b90508110156100fa5760038585848181106100b3576100b26101fa565b5b90506020028101906100c59190610233565b838181106100d6576100d56101fa565b5b90506020020135036100ed5760019250505061010d565b8080600101915050610070565b508080600101915050610063565b505f90505b92915050565b5f80fd5b5f80fd5b5f80fd5b5f80fd5b5f80fd5b5f8083601f84011261013c5761013b61011b565b5b8235905067ffffffffffffffff8111156101595761015861011f565b5b60208301915083602082028301111561017557610174610123565b5b9250929050565b5f806020838503121561019257610191610113565b5b5f83013567ffffffffffffffff8111156101af576101ae610117565b5b6101bb85828601610127565b92509250509250929050565b5f8115159050919050565b6101db816101c7565b82525050565b5f6020820190506101f45f8301846101d2565b92915050565b7f4e487b71000000000000000000000000000000000000000000000000000000005f52603260045260245ffd5b5f80fd5b5f80fd5b5f80fd5b5f808335600160200384360303811261024f5761024e610227565b5b80840192508235915067ffffffffffffffff8211156102715761027061022b565b5b60208301925060208202360383131561028d5761028c61022f565b5b50925092905056fea2646970667358221220bfa1b589bd9b0064ad43bca9ec3c10b8ffff2b3a877917deac735e67ce5e22ef64736f6c63430008190033",
					"opcodes": "PUSH1 0x80 PUSH1 0x40 MSTORE CALLVALUE DUP1 ISZERO PUSH1 0xE JUMPI PUSH0 DUP1 REVERT JUMPDEST POP PUSH2 0x2CB DUP1 PUSH2 0x1C PUSH0 CODECOPY PUSH0 RETURN INVALID PUSH1 0x80 PUSH1 0x40 MSTORE CALLVALUE DUP1 ISZERO PUSH2 0xF JUMPI PUSH0 DUP1 REVERT JUMPDEST POP PUSH1 0x4 CALLDATASIZE LT PUSH2 0x29 JUMPI PUSH0 CALLDATALOAD PUSH1 0xE0 SHR DUP1 PUSH4 0x998B0864 EQ PUSH2 0x2D JUMPI JUMPDEST PUSH0 DUP1 REVERT JUMPDEST PUSH2 0x47 PUSH1 0x4 DUP1 CALLDATASIZE SUB DUP2 ADD SWAP1 PUSH2 0x42 SWAP2 SWAP1 PUSH2 0x17C JUMP JUMPDEST PUSH2 0x5D JUMP JUMPDEST PUSH1 0x40 MLOAD PUSH2 0x54 SWAP2 SWAP1 PUSH2 0x1E1 JUMP JUMPDEST PUSH1 0x40 MLOAD DUP1 SWAP2 SUB SWAP1 RETURN JUMPDEST PUSH0 DUP1 PUSH0 SWAP1 POP JUMPDEST DUP4 DUP4 SWAP1 POP DUP2 LT ISZERO PUSH2 0x108 JUMPI PUSH0 JUMPDEST DUP5 DUP5 PUSH0 DUP2 DUP2 LT PUSH2 0x83 JUMPI PUSH2 0x82 PUSH2 0x1FA JUMP JUMPDEST JUMPDEST SWAP1 POP PUSH1 0x20 MUL DUP2 ADD SWAP1 PUSH2 0x95 SWAP2 SWAP1 PUSH2 0x233 JUMP JUMPDEST SWAP1 POP DUP2 LT ISZERO PUSH2 0xFA JUMPI PUSH1 0x3 DUP6 DUP6 DUP5 DUP2 DUP2 LT PUSH2 0xB3 JUMPI PUSH2 0xB2 PUSH2 0x1FA JUMP JUMPDEST JUMPDEST SWAP1 POP PUSH1 0x20 MUL DUP2 ADD SWAP1 PUSH2 0xC5 SWAP2 SWAP1 PUSH2 0x233 JUMP JUMPDEST DUP4 DUP2 DUP2 LT PUSH2 0xD6 JUMPI PUSH2 0xD5 PUSH2 0x1FA JUMP JUMPDEST JUMPDEST SWAP1 POP PUSH1 0x20 MUL ADD CALLDATALOAD SUB PUSH2 0xED JUMPI PUSH1 0x1 SWAP3 POP POP POP PUSH2 0x10D JUMP JUMPDEST DUP1 DUP1 PUSH1 0x1 ADD SWAP2 POP POP PUSH2 0x70 JUMP JUMPDEST POP DUP1 DUP1 PUSH1 0x1 ADD SWAP2 POP POP PUSH2 0x63 JUMP JUMPDEST POP PUSH0 SWAP1 POP JUMPDEST SWAP3 SWAP2 POP POP JUMP JUMPDEST PUSH0 DUP1 REVERT JUMPDEST PUSH0 DUP1 REVERT JUMPDEST PUSH0 DUP1 REVERT JUMPDEST PUSH0 DUP1 REVERT JUMPDEST PUSH0 DUP1 REVERT JUMPDEST PUSH0 DUP1 DUP4 PUSH1 0x1F DUP5 ADD SLT PUSH2 0x13C JUMPI PUSH2 0x13B PUSH2 0x11B JUMP JUMPDEST JUMPDEST DUP3 CALLDATALOAD SWAP1 POP PUSH8 0xFFFFFFFFFFFFFFFF DUP2 GT ISZERO PUSH2 0x159 JUMPI PUSH2 0x158 PUSH2 0x11F JUMP JUMPDEST JUMPDEST PUSH1 0x20 DUP4 ADD SWAP2 POP DUP4 PUSH1 0x20 DUP3 MUL DUP4 ADD GT ISZERO PUSH2 0x175 JUMPI PUSH2 0x174 PUSH2 0x123 JUMP JUMPDEST JUMPDEST SWAP3 POP SWAP3 SWAP1 POP JUMP JUMPDEST PUSH0 DUP1 PUSH1 0x20 DUP4 DUP6 SUB SLT ISZERO PUSH2 0x192 JUMPI PUSH2 0x191 PUSH2 0x113 JUMP JUMPDEST JUMPDEST PUSH0 DUP4 ADD CALLDATALOAD PUSH8 0xFFFFFFFFFFFFFFFF DUP2 GT ISZERO PUSH2 0x1AF JUMPI PUSH2 0x1AE PUSH2 0x117 JUMP JUMPDEST JUMPDEST PUSH2 0x1BB DUP6 DUP3 DUP7 ADD PUSH2 0x127 JUMP JUMPDEST SWAP3 POP SWAP3 POP POP SWAP3 POP SWAP3 SWAP1 POP JUMP JUMPDEST PUSH0 DUP2 ISZERO ISZERO SWAP1 POP SWAP2 SWAP1 POP JUMP JUMPDEST PUSH2 0x1DB DUP2 PUSH2 0x1C7 JUMP JUMPDEST DUP3 MSTORE POP POP JUMP JUMPDEST PUSH0 PUSH1 0x20 DUP3 ADD SWAP1 POP PUSH2 0x1F4 PUSH0 DUP4 ADD DUP5 PUSH2 0x1D2 JUMP JUMPDEST SWAP3 SWAP2 POP POP JUMP JUMPDEST PUSH32 0x4E487B7100000000000000000000000000000000000000000000000000000000 PUSH0 MSTORE PUSH1 0x32 PUSH1 0x4 MSTORE PUSH1 0x24 PUSH0 REVERT JUMPDEST PUSH0 DUP1 REVERT JUMPDEST PUSH0 DUP1 REVERT JUMPDEST PUSH0 DUP1 REVERT JUMPDEST PUSH0 DUP1 DUP4 CALLDATALOAD PUSH1 0x1 PUSH1 0x20 SUB DUP5 CALLDATASIZE SUB SUB DUP2 SLT PUSH2 0x24F JUMPI PUSH2 0x24E PUSH2 0x227 JUMP JUMPDEST JUMPDEST DUP1 DUP5 ADD SWAP3 POP DUP3 CALLDATALOAD SWAP2 POP PUSH8 0xFFFFFFFFFFFFFFFF DUP3 GT ISZERO PUSH2 0x271 JUMPI PUSH2 0x270 PUSH2 0x22B JUMP JUMPDEST JUMPDEST PUSH1 0x20 DUP4 ADD SWAP3 POP PUSH1 0x20 DUP3 MUL CALLDATASIZE SUB DUP4 SGT ISZERO PUSH2 0x28D JUMPI PUSH2 0x28C PUSH2 0x22F JUMP JUMPDEST JUMPDEST POP SWAP3 POP SWAP3 SWAP1 POP JUMP INVALID LOG2 PUSH5 0x6970667358 0x22 SLT KECCAK256 0xBF LOG1 0xB5 DUP10 0xBD SWAP12 STOP PUSH5 0xAD43BCA9EC EXTCODECOPY LT 0xB8 SELFDESTRUCT SELFDESTRUCT 0x2B GASPRICE DUP8 PUSH26 0x17DEAC735E67CE5E22EF64736F6C634300081900330000000000 "
				},
				"gasEstimates": {
					"creation": {
						"codeDepositCost": "143000",
						"executionCost": "188",
						"totalCost": "143188"
					},
					"external": {
						"containsAThree(uint256[][])": "infinite"
					}
				},
				"methodIdentifiers": {
					"containsAThree(uint256[][])": "998b0864"
				}
			},
			"storageLayout": {
				"storage": [],
				"types": null
			},
			"userdoc": {
				"kind": "user",
				"methods": {},
				"version": 1
			}
		}
	}
}