{
	"contracts/msgsendera.daddress.sol": {
		"ERC20Token": {
			"abi": [
				{
					"inputs": [
						{
							"internalType": "address",
							"name": "",
							"type": "address"
						}
					],
					"name": "balances",
					"outputs": [
						{
							"internalType": "uint256",
							"name": "",
							"type": "uint256"
						}
					],
					"stateMutability": "view",
					"type": "function"
				},
				{
					"inputs": [
						{
							"internalType": "address",
							"name": "owner",
							"type": "address"
						},
						{
							"internalType": "uint256",
							"name": "amount",
							"type": "uint256"
						}
					],
					"name": "setSomeonesBalance",
					"outputs": [],
					"stateMutability": "nonpayable",
					"type": "function"
				},
				{
					"inputs": [
						{
							"internalType": "address",
							"name": "sender",
							"type": "address"
						},
						{
							"internalType": "address",
							"name": "receiver",
							"type": "address"
						},
						{
							"internalType": "uint256",
							"name": "amount",
							"type": "uint256"
						}
					],
					"name": "transferTokensBetweenAddresses",
					"outputs": [],
					"stateMutability": "nonpayable",
					"type": "function"
				},
				{
					"inputs": [],
					"name": "whoami",
					"outputs": [
						{
							"internalType": "address",
							"name": "",
							"type": "address"
						},
						{
							"internalType": "address",
							"name": "",
							"type": "address"
						}
					],
					"stateMutability": "view",
					"type": "function"
				}
			],
			"devdoc": {
				"kind": "dev",
				"methods": {},
				"version": 1
			},
			"evm": {
				"assembly": "    /* \"contracts/msgsendera.daddress.sol\":74:719  contract ERC20Token {... */\n  mstore(0x40, 0x80)\n  callvalue\n  dup1\n  iszero\n  tag_1\n  jumpi\n  0x00\n  dup1\n  revert\ntag_1:\n  pop\n  dataSize(sub_0)\n  dup1\n  dataOffset(sub_0)\n  0x00\n  codecopy\n  0x00\n  return\nstop\n\nsub_0: assembly {\n        /* \"contracts/msgsendera.daddress.sol\":74:719  contract ERC20Token {... */\n      mstore(0x40, 0x80)\n      callvalue\n      dup1\n      iszero\n      tag_1\n      jumpi\n      0x00\n      dup1\n      revert\n    tag_1:\n      pop\n      jumpi(tag_2, lt(calldatasize, 0x04))\n      shr(0xe0, calldataload(0x00))\n      dup1\n      0x27e235e3\n      eq\n      tag_3\n      jumpi\n      dup1\n      0x48929b78\n      eq\n      tag_4\n      jumpi\n      dup1\n      0xa55f800f\n      eq\n      tag_5\n      jumpi\n      dup1\n      0xb3b36bb3\n      eq\n      tag_6\n      jumpi\n    tag_2:\n      0x00\n      dup1\n      revert\n        /* \"contracts/msgsendera.daddress.sol\":101:144  mapping(address => uint256) public balances */\n    tag_3:\n      tag_7\n      0x04\n      dup1\n      calldatasize\n      sub\n      dup2\n      add\n      swap1\n      tag_8\n      swap2\n      swap1\n      tag_9\n      jump\t// in\n    tag_8:\n      tag_10\n      jump\t// in\n    tag_7:\n      mload(0x40)\n      tag_11\n      swap2\n      swap1\n      tag_12\n      jump\t// in\n    tag_11:\n      mload(0x40)\n      dup1\n      swap2\n      sub\n      swap1\n      return\n        /* \"contracts/msgsendera.daddress.sol\":153:262  function setSomeonesBalance(address owner, uint256 amount) public {... */\n    tag_4:\n      tag_13\n      0x04\n      dup1\n      calldatasize\n      sub\n      dup2\n      add\n      swap1\n      tag_14\n      swap2\n      swap1\n      tag_15\n      jump\t// in\n    tag_14:\n      tag_16\n      jump\t// in\n    tag_13:\n      stop\n        /* \"contracts/msgsendera.daddress.sol\":270:523  function transferTokensBetweenAddresses(address sender, address receiver, uint256 amount) public {... */\n    tag_5:\n      tag_17\n      0x04\n      dup1\n      calldatasize\n      sub\n      dup2\n      add\n      swap1\n      tag_18\n      swap2\n      swap1\n      tag_19\n      jump\t// in\n    tag_18:\n      tag_20\n      jump\t// in\n    tag_17:\n      stop\n        /* \"contracts/msgsendera.daddress.sol\":531:715  function whoami() public view returns (address, address) {... */\n    tag_6:\n      tag_21\n      tag_22\n      jump\t// in\n    tag_21:\n      mload(0x40)\n      tag_23\n      swap3\n      swap2\n      swap1\n      tag_24\n      jump\t// in\n    tag_23:\n      mload(0x40)\n      dup1\n      swap2\n      sub\n      swap1\n      return\n        /* \"contracts/msgsendera.daddress.sol\":101:144  mapping(address => uint256) public balances */\n    tag_10:\n      mstore(0x20, 0x00)\n      dup1\n      0x00\n      mstore\n      keccak256(0x00, 0x40)\n      0x00\n      swap2\n      pop\n      swap1\n      pop\n      sload\n      dup2\n      jump\t// out\n        /* \"contracts/msgsendera.daddress.sol\":153:262  function setSomeonesBalance(address owner, uint256 amount) public {... */\n    tag_16:\n        /* \"contracts/msgsendera.daddress.sol\":248:254  amount */\n      dup1\n        /* \"contracts/msgsendera.daddress.sol\":230:238  balances */\n      0x00\n        /* \"contracts/msgsendera.daddress.sol\":230:245  balances[owner] */\n      dup1\n        /* \"contracts/msgsendera.daddress.sol\":239:244  owner */\n      dup5\n        /* \"contracts/msgsendera.daddress.sol\":230:245  balances[owner] */\n      0xffffffffffffffffffffffffffffffffffffffff\n      and\n      0xffffffffffffffffffffffffffffffffffffffff\n      and\n      dup2\n      mstore\n      0x20\n      add\n      swap1\n      dup2\n      mstore\n      0x20\n      add\n      0x00\n      keccak256\n        /* \"contracts/msgsendera.daddress.sol\":230:254  balances[owner] = amount */\n      dup2\n      swap1\n      sstore\n      pop\n        /* \"contracts/msgsendera.daddress.sol\":153:262  function setSomeonesBalance(address owner, uint256 amount) public {... */\n      pop\n      pop\n      jump\t// out\n        /* \"contracts/msgsendera.daddress.sol\":270:523  function transferTokensBetweenAddresses(address sender, address receiver, uint256 amount) public {... */\n    tag_20:\n        /* \"contracts/msgsendera.daddress.sol\":398:404  amount */\n      dup1\n        /* \"contracts/msgsendera.daddress.sol\":378:386  balances */\n      0x00\n        /* \"contracts/msgsendera.daddress.sol\":378:394  balances[sender] */\n      dup1\n        /* \"contracts/msgsendera.daddress.sol\":387:393  sender */\n      dup6\n        /* \"contracts/msgsendera.daddress.sol\":378:394  balances[sender] */\n      0xffffffffffffffffffffffffffffffffffffffff\n      and\n      0xffffffffffffffffffffffffffffffffffffffff\n      and\n      dup2\n      mstore\n      0x20\n      add\n      swap1\n      dup2\n      mstore\n      0x20\n      add\n      0x00\n      keccak256\n      0x00\n        /* \"contracts/msgsendera.daddress.sol\":378:404  balances[sender] -= amount */\n      dup3\n      dup3\n      sload\n      tag_27\n      swap2\n      swap1\n      tag_28\n      jump\t// in\n    tag_27:\n      swap3\n      pop\n      pop\n      dup2\n      swap1\n      sstore\n      pop\n        /* \"contracts/msgsendera.daddress.sol\":476:482  amount */\n      dup1\n        /* \"contracts/msgsendera.daddress.sol\":454:462  balances */\n      0x00\n        /* \"contracts/msgsendera.daddress.sol\":454:472  balances[receiver] */\n      dup1\n        /* \"contracts/msgsendera.daddress.sol\":463:471  receiver */\n      dup5\n        /* \"contracts/msgsendera.daddress.sol\":454:472  balances[receiver] */\n      0xffffffffffffffffffffffffffffffffffffffff\n      and\n      0xffffffffffffffffffffffffffffffffffffffff\n      and\n      dup2\n      mstore\n      0x20\n      add\n      swap1\n      dup2\n      mstore\n      0x20\n      add\n      0x00\n      keccak256\n      0x00\n        /* \"contracts/msgsendera.daddress.sol\":454:482  balances[receiver] += amount */\n      dup3\n      dup3\n      sload\n      tag_29\n      swap2\n      swap1\n      tag_30\n      jump\t// in\n    tag_29:\n      swap3\n      pop\n      pop\n      dup2\n      swap1\n      sstore\n      pop\n        /* \"contracts/msgsendera.daddress.sol\":270:523  function transferTokensBetweenAddresses(address sender, address receiver, uint256 amount) public {... */\n      pop\n      pop\n      pop\n      jump\t// out\n        /* \"contracts/msgsendera.daddress.sol\":531:715  function whoami() public view returns (address, address) {... */\n    tag_22:\n        /* \"contracts/msgsendera.daddress.sol\":570:577  address */\n      0x00\n        /* \"contracts/msgsendera.daddress.sol\":579:586  address */\n      dup1\n        /* \"contracts/msgsendera.daddress.sol\":599:613  address sender */\n      0x00\n        /* \"contracts/msgsendera.daddress.sol\":616:626  msg.sender */\n      caller\n        /* \"contracts/msgsendera.daddress.sol\":599:626  address sender = msg.sender */\n      swap1\n      pop\n        /* \"contracts/msgsendera.daddress.sol\":637:654  address _contract */\n      0x00\n        /* \"contracts/msgsendera.daddress.sol\":665:669  this */\n      address\n        /* \"contracts/msgsendera.daddress.sol\":637:670  address _contract = address(this) */\n      swap1\n      pop\n        /* \"contracts/msgsendera.daddress.sol\":689:695  sender */\n      dup2\n        /* \"contracts/msgsendera.daddress.sol\":697:706  _contract */\n      dup2\n        /* \"contracts/msgsendera.daddress.sol\":681:707  return (sender, _contract) */\n      swap4\n      pop\n      swap4\n      pop\n      pop\n      pop\n        /* \"contracts/msgsendera.daddress.sol\":531:715  function whoami() public view returns (address, address) {... */\n      swap1\n      swap2\n      jump\t// out\n        /* \"#utility.yul\":88:205   */\n    tag_33:\n        /* \"#utility.yul\":197:198   */\n      0x00\n        /* \"#utility.yul\":194:195   */\n      dup1\n        /* \"#utility.yul\":187:199   */\n      revert\n        /* \"#utility.yul\":334:460   */\n    tag_35:\n        /* \"#utility.yul\":371:378   */\n      0x00\n        /* \"#utility.yul\":411:453   */\n      0xffffffffffffffffffffffffffffffffffffffff\n        /* \"#utility.yul\":404:409   */\n      dup3\n        /* \"#utility.yul\":400:454   */\n      and\n        /* \"#utility.yul\":389:454   */\n      swap1\n      pop\n        /* \"#utility.yul\":334:460   */\n      swap2\n      swap1\n      pop\n      jump\t// out\n        /* \"#utility.yul\":466:562   */\n    tag_36:\n        /* \"#utility.yul\":503:510   */\n      0x00\n        /* \"#utility.yul\":532:556   */\n      tag_51\n        /* \"#utility.yul\":550:555   */\n      dup3\n        /* \"#utility.yul\":532:556   */\n      tag_35\n      jump\t// in\n    tag_51:\n        /* \"#utility.yul\":521:556   */\n      swap1\n      pop\n        /* \"#utility.yul\":466:562   */\n      swap2\n      swap1\n      pop\n      jump\t// out\n        /* \"#utility.yul\":568:690   */\n    tag_37:\n        /* \"#utility.yul\":641:665   */\n      tag_53\n        /* \"#utility.yul\":659:664   */\n      dup2\n        /* \"#utility.yul\":641:665   */\n      tag_36\n      jump\t// in\n    tag_53:\n        /* \"#utility.yul\":634:639   */\n      dup2\n        /* \"#utility.yul\":631:666   */\n      eq\n        /* \"#utility.yul\":621:684   */\n      tag_54\n      jumpi\n        /* \"#utility.yul\":680:681   */\n      0x00\n        /* \"#utility.yul\":677:678   */\n      dup1\n        /* \"#utility.yul\":670:682   */\n      revert\n        /* \"#utility.yul\":621:684   */\n    tag_54:\n        /* \"#utility.yul\":568:690   */\n      pop\n      jump\t// out\n        /* \"#utility.yul\":696:835   */\n    tag_38:\n        /* \"#utility.yul\":742:747   */\n      0x00\n        /* \"#utility.yul\":780:786   */\n      dup2\n        /* \"#utility.yul\":767:787   */\n      calldataload\n        /* \"#utility.yul\":758:787   */\n      swap1\n      pop\n        /* \"#utility.yul\":796:829   */\n      tag_56\n        /* \"#utility.yul\":823:828   */\n      dup2\n        /* \"#utility.yul\":796:829   */\n      tag_37\n      jump\t// in\n    tag_56:\n        /* \"#utility.yul\":696:835   */\n      swap3\n      swap2\n      pop\n      pop\n      jump\t// out\n        /* \"#utility.yul\":841:1170   */\n    tag_9:\n        /* \"#utility.yul\":900:906   */\n      0x00\n        /* \"#utility.yul\":949:951   */\n      0x20\n        /* \"#utility.yul\":937:946   */\n      dup3\n        /* \"#utility.yul\":928:935   */\n      dup5\n        /* \"#utility.yul\":924:947   */\n      sub\n        /* \"#utility.yul\":920:952   */\n      slt\n        /* \"#utility.yul\":917:1036   */\n      iszero\n      tag_58\n      jumpi\n        /* \"#utility.yul\":955:1034   */\n      tag_59\n      tag_33\n      jump\t// in\n    tag_59:\n        /* \"#utility.yul\":917:1036   */\n    tag_58:\n        /* \"#utility.yul\":1075:1076   */\n      0x00\n        /* \"#utility.yul\":1100:1153   */\n      tag_60\n        /* \"#utility.yul\":1145:1152   */\n      dup5\n        /* \"#utility.yul\":1136:1142   */\n      dup3\n        /* \"#utility.yul\":1125:1134   */\n      dup6\n        /* \"#utility.yul\":1121:1143   */\n      add\n        /* \"#utility.yul\":1100:1153   */\n      tag_38\n      jump\t// in\n    tag_60:\n        /* \"#utility.yul\":1090:1153   */\n      swap2\n      pop\n        /* \"#utility.yul\":1046:1163   */\n      pop\n        /* \"#utility.yul\":841:1170   */\n      swap3\n      swap2\n      pop\n      pop\n      jump\t// out\n        /* \"#utility.yul\":1176:1253   */\n    tag_39:\n        /* \"#utility.yul\":1213:1220   */\n      0x00\n        /* \"#utility.yul\":1242:1247   */\n      dup2\n        /* \"#utility.yul\":1231:1247   */\n      swap1\n      pop\n        /* \"#utility.yul\":1176:1253   */\n      swap2\n      swap1\n      pop\n      jump\t// out\n        /* \"#utility.yul\":1259:1377   */\n    tag_40:\n        /* \"#utility.yul\":1346:1370   */\n      tag_63\n        /* \"#utility.yul\":1364:1369   */\n      dup2\n        /* \"#utility.yul\":1346:1370   */\n      tag_39\n      jump\t// in\n    tag_63:\n        /* \"#utility.yul\":1341:1344   */\n      dup3\n        /* \"#utility.yul\":1334:1371   */\n      mstore\n        /* \"#utility.yul\":1259:1377   */\n      pop\n      pop\n      jump\t// out\n        /* \"#utility.yul\":1383:1605   */\n    tag_12:\n        /* \"#utility.yul\":1476:1480   */\n      0x00\n        /* \"#utility.yul\":1514:1516   */\n      0x20\n        /* \"#utility.yul\":1503:1512   */\n      dup3\n        /* \"#utility.yul\":1499:1517   */\n      add\n        /* \"#utility.yul\":1491:1517   */\n      swap1\n      pop\n        /* \"#utility.yul\":1527:1598   */\n      tag_65\n        /* \"#utility.yul\":1595:1596   */\n      0x00\n        /* \"#utility.yul\":1584:1593   */\n      dup4\n        /* \"#utility.yul\":1580:1597   */\n      add\n        /* \"#utility.yul\":1571:1577   */\n      dup5\n        /* \"#utility.yul\":1527:1598   */\n      tag_40\n      jump\t// in\n    tag_65:\n        /* \"#utility.yul\":1383:1605   */\n      swap3\n      swap2\n      pop\n      pop\n      jump\t// out\n        /* \"#utility.yul\":1611:1733   */\n    tag_41:\n        /* \"#utility.yul\":1684:1708   */\n      tag_67\n        /* \"#utility.yul\":1702:1707   */\n      dup2\n        /* \"#utility.yul\":1684:1708   */\n      tag_39\n      jump\t// in\n    tag_67:\n        /* \"#utility.yul\":1677:1682   */\n      dup2\n        /* \"#utility.yul\":1674:1709   */\n      eq\n        /* \"#utility.yul\":1664:1727   */\n      tag_68\n      jumpi\n        /* \"#utility.yul\":1723:1724   */\n      0x00\n        /* \"#utility.yul\":1720:1721   */\n      dup1\n        /* \"#utility.yul\":1713:1725   */\n      revert\n        /* \"#utility.yul\":1664:1727   */\n    tag_68:\n        /* \"#utility.yul\":1611:1733   */\n      pop\n      jump\t// out\n        /* \"#utility.yul\":1739:1878   */\n    tag_42:\n        /* \"#utility.yul\":1785:1790   */\n      0x00\n        /* \"#utility.yul\":1823:1829   */\n      dup2\n        /* \"#utility.yul\":1810:1830   */\n      calldataload\n        /* \"#utility.yul\":1801:1830   */\n      swap1\n      pop\n        /* \"#utility.yul\":1839:1872   */\n      tag_70\n        /* \"#utility.yul\":1866:1871   */\n      dup2\n        /* \"#utility.yul\":1839:1872   */\n      tag_41\n      jump\t// in\n    tag_70:\n        /* \"#utility.yul\":1739:1878   */\n      swap3\n      swap2\n      pop\n      pop\n      jump\t// out\n        /* \"#utility.yul\":1884:2358   */\n    tag_15:\n        /* \"#utility.yul\":1952:1958   */\n      0x00\n        /* \"#utility.yul\":1960:1966   */\n      dup1\n        /* \"#utility.yul\":2009:2011   */\n      0x40\n        /* \"#utility.yul\":1997:2006   */\n      dup4\n        /* \"#utility.yul\":1988:1995   */\n      dup6\n        /* \"#utility.yul\":1984:2007   */\n      sub\n        /* \"#utility.yul\":1980:2012   */\n      slt\n        /* \"#utility.yul\":1977:2096   */\n      iszero\n      tag_72\n      jumpi\n        /* \"#utility.yul\":2015:2094   */\n      tag_73\n      tag_33\n      jump\t// in\n    tag_73:\n        /* \"#utility.yul\":1977:2096   */\n    tag_72:\n        /* \"#utility.yul\":2135:2136   */\n      0x00\n        /* \"#utility.yul\":2160:2213   */\n      tag_74\n        /* \"#utility.yul\":2205:2212   */\n      dup6\n        /* \"#utility.yul\":2196:2202   */\n      dup3\n        /* \"#utility.yul\":2185:2194   */\n      dup7\n        /* \"#utility.yul\":2181:2203   */\n      add\n        /* \"#utility.yul\":2160:2213   */\n      tag_38\n      jump\t// in\n    tag_74:\n        /* \"#utility.yul\":2150:2213   */\n      swap3\n      pop\n        /* \"#utility.yul\":2106:2223   */\n      pop\n        /* \"#utility.yul\":2262:2264   */\n      0x20\n        /* \"#utility.yul\":2288:2341   */\n      tag_75\n        /* \"#utility.yul\":2333:2340   */\n      dup6\n        /* \"#utility.yul\":2324:2330   */\n      dup3\n        /* \"#utility.yul\":2313:2322   */\n      dup7\n        /* \"#utility.yul\":2309:2331   */\n      add\n        /* \"#utility.yul\":2288:2341   */\n      tag_42\n      jump\t// in\n    tag_75:\n        /* \"#utility.yul\":2278:2341   */\n      swap2\n      pop\n        /* \"#utility.yul\":2233:2351   */\n      pop\n        /* \"#utility.yul\":1884:2358   */\n      swap3\n      pop\n      swap3\n      swap1\n      pop\n      jump\t// out\n        /* \"#utility.yul\":2364:2983   */\n    tag_19:\n        /* \"#utility.yul\":2441:2447   */\n      0x00\n        /* \"#utility.yul\":2449:2455   */\n      dup1\n        /* \"#utility.yul\":2457:2463   */\n      0x00\n        /* \"#utility.yul\":2506:2508   */\n      0x60\n        /* \"#utility.yul\":2494:2503   */\n      dup5\n        /* \"#utility.yul\":2485:2492   */\n      dup7\n        /* \"#utility.yul\":2481:2504   */\n      sub\n        /* \"#utility.yul\":2477:2509   */\n      slt\n        /* \"#utility.yul\":2474:2593   */\n      iszero\n      tag_77\n      jumpi\n        /* \"#utility.yul\":2512:2591   */\n      tag_78\n      tag_33\n      jump\t// in\n    tag_78:\n        /* \"#utility.yul\":2474:2593   */\n    tag_77:\n        /* \"#utility.yul\":2632:2633   */\n      0x00\n        /* \"#utility.yul\":2657:2710   */\n      tag_79\n        /* \"#utility.yul\":2702:2709   */\n      dup7\n        /* \"#utility.yul\":2693:2699   */\n      dup3\n        /* \"#utility.yul\":2682:2691   */\n      dup8\n        /* \"#utility.yul\":2678:2700   */\n      add\n        /* \"#utility.yul\":2657:2710   */\n      tag_38\n      jump\t// in\n    tag_79:\n        /* \"#utility.yul\":2647:2710   */\n      swap4\n      pop\n        /* \"#utility.yul\":2603:2720   */\n      pop\n        /* \"#utility.yul\":2759:2761   */\n      0x20\n        /* \"#utility.yul\":2785:2838   */\n      tag_80\n        /* \"#utility.yul\":2830:2837   */\n      dup7\n        /* \"#utility.yul\":2821:2827   */\n      dup3\n        /* \"#utility.yul\":2810:2819   */\n      dup8\n        /* \"#utility.yul\":2806:2828   */\n      add\n        /* \"#utility.yul\":2785:2838   */\n      tag_38\n      jump\t// in\n    tag_80:\n        /* \"#utility.yul\":2775:2838   */\n      swap3\n      pop\n        /* \"#utility.yul\":2730:2848   */\n      pop\n        /* \"#utility.yul\":2887:2889   */\n      0x40\n        /* \"#utility.yul\":2913:2966   */\n      tag_81\n        /* \"#utility.yul\":2958:2965   */\n      dup7\n        /* \"#utility.yul\":2949:2955   */\n      dup3\n        /* \"#utility.yul\":2938:2947   */\n      dup8\n        /* \"#utility.yul\":2934:2956   */\n      add\n        /* \"#utility.yul\":2913:2966   */\n      tag_42\n      jump\t// in\n    tag_81:\n        /* \"#utility.yul\":2903:2966   */\n      swap2\n      pop\n        /* \"#utility.yul\":2858:2976   */\n      pop\n        /* \"#utility.yul\":2364:2983   */\n      swap3\n      pop\n      swap3\n      pop\n      swap3\n      jump\t// out\n        /* \"#utility.yul\":2989:3107   */\n    tag_43:\n        /* \"#utility.yul\":3076:3100   */\n      tag_83\n        /* \"#utility.yul\":3094:3099   */\n      dup2\n        /* \"#utility.yul\":3076:3100   */\n      tag_36\n      jump\t// in\n    tag_83:\n        /* \"#utility.yul\":3071:3074   */\n      dup3\n        /* \"#utility.yul\":3064:3101   */\n      mstore\n        /* \"#utility.yul\":2989:3107   */\n      pop\n      pop\n      jump\t// out\n        /* \"#utility.yul\":3113:3445   */\n    tag_24:\n        /* \"#utility.yul\":3234:3238   */\n      0x00\n        /* \"#utility.yul\":3272:3274   */\n      0x40\n        /* \"#utility.yul\":3261:3270   */\n      dup3\n        /* \"#utility.yul\":3257:3275   */\n      add\n        /* \"#utility.yul\":3249:3275   */\n      swap1\n      pop\n        /* \"#utility.yul\":3285:3356   */\n      tag_85\n        /* \"#utility.yul\":3353:3354   */\n      0x00\n        /* \"#utility.yul\":3342:3351   */\n      dup4\n        /* \"#utility.yul\":3338:3355   */\n      add\n        /* \"#utility.yul\":3329:3335   */\n      dup6\n        /* \"#utility.yul\":3285:3356   */\n      tag_43\n      jump\t// in\n    tag_85:\n        /* \"#utility.yul\":3366:3438   */\n      tag_86\n        /* \"#utility.yul\":3434:3436   */\n      0x20\n        /* \"#utility.yul\":3423:3432   */\n      dup4\n        /* \"#utility.yul\":3419:3437   */\n      add\n        /* \"#utility.yul\":3410:3416   */\n      dup5\n        /* \"#utility.yul\":3366:3438   */\n      tag_43\n      jump\t// in\n    tag_86:\n        /* \"#utility.yul\":3113:3445   */\n      swap4\n      swap3\n      pop\n      pop\n      pop\n      jump\t// out\n        /* \"#utility.yul\":3451:3631   */\n    tag_44:\n        /* \"#utility.yul\":3499:3576   */\n      0x4e487b7100000000000000000000000000000000000000000000000000000000\n        /* \"#utility.yul\":3496:3497   */\n      0x00\n        /* \"#utility.yul\":3489:3577   */\n      mstore\n        /* \"#utility.yul\":3596:3600   */\n      0x11\n        /* \"#utility.yul\":3593:3594   */\n      0x04\n        /* \"#utility.yul\":3586:3601   */\n      mstore\n        /* \"#utility.yul\":3620:3624   */\n      0x24\n        /* \"#utility.yul\":3617:3618   */\n      0x00\n        /* \"#utility.yul\":3610:3625   */\n      revert\n        /* \"#utility.yul\":3637:3831   */\n    tag_28:\n        /* \"#utility.yul\":3677:3681   */\n      0x00\n        /* \"#utility.yul\":3697:3717   */\n      tag_89\n        /* \"#utility.yul\":3715:3716   */\n      dup3\n        /* \"#utility.yul\":3697:3717   */\n      tag_39\n      jump\t// in\n    tag_89:\n        /* \"#utility.yul\":3692:3717   */\n      swap2\n      pop\n        /* \"#utility.yul\":3731:3751   */\n      tag_90\n        /* \"#utility.yul\":3749:3750   */\n      dup4\n        /* \"#utility.yul\":3731:3751   */\n      tag_39\n      jump\t// in\n    tag_90:\n        /* \"#utility.yul\":3726:3751   */\n      swap3\n      pop\n        /* \"#utility.yul\":3775:3776   */\n      dup3\n        /* \"#utility.yul\":3772:3773   */\n      dup3\n        /* \"#utility.yul\":3768:3777   */\n      sub\n        /* \"#utility.yul\":3760:3777   */\n      swap1\n      pop\n        /* \"#utility.yul\":3799:3800   */\n      dup2\n        /* \"#utility.yul\":3793:3797   */\n      dup2\n        /* \"#utility.yul\":3790:3801   */\n      gt\n        /* \"#utility.yul\":3787:3824   */\n      iszero\n      tag_91\n      jumpi\n        /* \"#utility.yul\":3804:3822   */\n      tag_92\n      tag_44\n      jump\t// in\n    tag_92:\n        /* \"#utility.yul\":3787:3824   */\n    tag_91:\n        /* \"#utility.yul\":3637:3831   */\n      swap3\n      swap2\n      pop\n      pop\n      jump\t// out\n        /* \"#utility.yul\":3837:4028   */\n    tag_30:\n        /* \"#utility.yul\":3877:3880   */\n      0x00\n        /* \"#utility.yul\":3896:3916   */\n      tag_94\n        /* \"#utility.yul\":3914:3915   */\n      dup3\n        /* \"#utility.yul\":3896:3916   */\n      tag_39\n      jump\t// in\n    tag_94:\n        /* \"#utility.yul\":3891:3916   */\n      swap2\n      pop\n        /* \"#utility.yul\":3930:3950   */\n      tag_95\n        /* \"#utility.yul\":3948:3949   */\n      dup4\n        /* \"#utility.yul\":3930:3950   */\n      tag_39\n      jump\t// in\n    tag_95:\n        /* \"#utility.yul\":3925:3950   */\n      swap3\n      pop\n        /* \"#utility.yul\":3973:3974   */\n      dup3\n        /* \"#utility.yul\":3970:3971   */\n      dup3\n        /* \"#utility.yul\":3966:3975   */\n      add\n        /* \"#utility.yul\":3959:3975   */\n      swap1\n      pop\n        /* \"#utility.yul\":3994:3997   */\n      dup1\n        /* \"#utility.yul\":3991:3992   */\n      dup3\n        /* \"#utility.yul\":3988:3998   */\n      gt\n        /* \"#utility.yul\":3985:4021   */\n      iszero\n      tag_96\n      jumpi\n        /* \"#utility.yul\":4001:4019   */\n      tag_97\n      tag_44\n      jump\t// in\n    tag_97:\n        /* \"#utility.yul\":3985:4021   */\n    tag_96:\n        /* \"#utility.yul\":3837:4028   */\n      swap3\n      swap2\n      pop\n      pop\n      jump\t// out\n\n    auxdata: 0xa264697066735822122096cde92b2155f48d169dcb59de6522c3a876549e21f3fbd75bea0d1b5692128c64736f6c63430008190033\n}\n",
				"bytecode": {
					"linkReferences": {},
					"object": "6080604052348015600e575f80fd5b5061045e8061001c5f395ff3fe608060405234801561000f575f80fd5b506004361061004a575f3560e01c806327e235e31461004e57806348929b781461007e578063a55f800f1461009a578063b3b36bb3146100b6575b5f80fd5b6100686004803603810190610063919061024b565b6100d5565b604051610075919061028e565b60405180910390f35b610098600480360381019061009391906102d1565b6100e9565b005b6100b460048036038101906100af919061030f565b61012e565b005b6100be6101d7565b6040516100cc92919061036e565b60405180910390f35b5f602052805f5260405f205f915090505481565b805f808473ffffffffffffffffffffffffffffffffffffffff1673ffffffffffffffffffffffffffffffffffffffff1681526020019081526020015f20819055505050565b805f808573ffffffffffffffffffffffffffffffffffffffff1673ffffffffffffffffffffffffffffffffffffffff1681526020019081526020015f205f82825461017991906103c2565b92505081905550805f808473ffffffffffffffffffffffffffffffffffffffff1673ffffffffffffffffffffffffffffffffffffffff1681526020019081526020015f205f8282546101cb91906103f5565b92505081905550505050565b5f805f3390505f30905081819350935050509091565b5f80fd5b5f73ffffffffffffffffffffffffffffffffffffffff82169050919050565b5f61021a826101f1565b9050919050565b61022a81610210565b8114610234575f80fd5b50565b5f8135905061024581610221565b92915050565b5f602082840312156102605761025f6101ed565b5b5f61026d84828501610237565b91505092915050565b5f819050919050565b61028881610276565b82525050565b5f6020820190506102a15f83018461027f565b92915050565b6102b081610276565b81146102ba575f80fd5b50565b5f813590506102cb816102a7565b92915050565b5f80604083850312156102e7576102e66101ed565b5b5f6102f485828601610237565b9250506020610305858286016102bd565b9150509250929050565b5f805f60608486031215610326576103256101ed565b5b5f61033386828701610237565b935050602061034486828701610237565b9250506040610355868287016102bd565b9150509250925092565b61036881610210565b82525050565b5f6040820190506103815f83018561035f565b61038e602083018461035f565b9392505050565b7f4e487b71000000000000000000000000000000000000000000000000000000005f52601160045260245ffd5b5f6103cc82610276565b91506103d783610276565b92508282039050818111156103ef576103ee610395565b5b92915050565b5f6103ff82610276565b915061040a83610276565b925082820190508082111561042257610421610395565b5b9291505056fea264697066735822122096cde92b2155f48d169dcb59de6522c3a876549e21f3fbd75bea0d1b5692128c64736f6c63430008190033",
					"opcodes": "PUSH1 0x80 PUSH1 0x40 MSTORE CALLVALUE DUP1 ISZERO PUSH1 0xE JUMPI PUSH0 DUP1 REVERT JUMPDEST POP PUSH2 0x45E DUP1 PUSH2 0x1C PUSH0 CODECOPY PUSH0 RETURN INVALID PUSH1 0x80 PUSH1 0x40 MSTORE CALLVALUE DUP1 ISZERO PUSH2 0xF JUMPI PUSH0 DUP1 REVERT JUMPDEST POP PUSH1 0x4 CALLDATASIZE LT PUSH2 0x4A JUMPI PUSH0 CALLDATALOAD PUSH1 0xE0 SHR DUP1 PUSH4 0x27E235E3 EQ PUSH2 0x4E JUMPI DUP1 PUSH4 0x48929B78 EQ PUSH2 0x7E JUMPI DUP1 PUSH4 0xA55F800F EQ PUSH2 0x9A JUMPI DUP1 PUSH4 0xB3B36BB3 EQ PUSH2 0xB6 JUMPI JUMPDEST PUSH0 DUP1 REVERT JUMPDEST PUSH2 0x68 PUSH1 0x4 DUP1 CALLDATASIZE SUB DUP2 ADD SWAP1 PUSH2 0x63 SWAP2 SWAP1 PUSH2 0x24B JUMP JUMPDEST PUSH2 0xD5 JUMP JUMPDEST PUSH1 0x40 MLOAD PUSH2 0x75 SWAP2 SWAP1 PUSH2 0x28E JUMP JUMPDEST PUSH1 0x40 MLOAD DUP1 SWAP2 SUB SWAP1 RETURN JUMPDEST PUSH2 0x98 PUSH1 0x4 DUP1 CALLDATASIZE SUB DUP2 ADD SWAP1 PUSH2 0x93 SWAP2 SWAP1 PUSH2 0x2D1 JUMP JUMPDEST PUSH2 0xE9 JUMP JUMPDEST STOP JUMPDEST PUSH2 0xB4 PUSH1 0x4 DUP1 CALLDATASIZE SUB DUP2 ADD SWAP1 PUSH2 0xAF SWAP2 SWAP1 PUSH2 0x30F JUMP JUMPDEST PUSH2 0x12E JUMP JUMPDEST STOP JUMPDEST PUSH2 0xBE PUSH2 0x1D7 JUMP JUMPDEST PUSH1 0x40 MLOAD PUSH2 0xCC SWAP3 SWAP2 SWAP1 PUSH2 0x36E JUMP JUMPDEST PUSH1 0x40 MLOAD DUP1 SWAP2 SUB SWAP1 RETURN JUMPDEST PUSH0 PUSH1 0x20 MSTORE DUP1 PUSH0 MSTORE PUSH1 0x40 PUSH0 KECCAK256 PUSH0 SWAP2 POP SWAP1 POP SLOAD DUP2 JUMP JUMPDEST DUP1 PUSH0 DUP1 DUP5 PUSH20 0xFFFFFFFFFFFFFFFFFFFFFFFFFFFFFFFFFFFFFFFF AND PUSH20 0xFFFFFFFFFFFFFFFFFFFFFFFFFFFFFFFFFFFFFFFF AND DUP2 MSTORE PUSH1 0x20 ADD SWAP1 DUP2 MSTORE PUSH1 0x20 ADD PUSH0 KECCAK256 DUP2 SWAP1 SSTORE POP POP POP JUMP JUMPDEST DUP1 PUSH0 DUP1 DUP6 PUSH20 0xFFFFFFFFFFFFFFFFFFFFFFFFFFFFFFFFFFFFFFFF AND PUSH20 0xFFFFFFFFFFFFFFFFFFFFFFFFFFFFFFFFFFFFFFFF AND DUP2 MSTORE PUSH1 0x20 ADD SWAP1 DUP2 MSTORE PUSH1 0x20 ADD PUSH0 KECCAK256 PUSH0 DUP3 DUP3 SLOAD PUSH2 0x179 SWAP2 SWAP1 PUSH2 0x3C2 JUMP JUMPDEST SWAP3 POP POP DUP2 SWAP1 SSTORE POP DUP1 PUSH0 DUP1 DUP5 PUSH20 0xFFFFFFFFFFFFFFFFFFFFFFFFFFFFFFFFFFFFFFFF AND PUSH20 0xFFFFFFFFFFFFFFFFFFFFFFFFFFFFFFFFFFFFFFFF AND DUP2 MSTORE PUSH1 0x20 ADD SWAP1 DUP2 MSTORE PUSH1 0x20 ADD PUSH0 KECCAK256 PUSH0 DUP3 DUP3 SLOAD PUSH2 0x1CB SWAP2 SWAP1 PUSH2 0x3F5 JUMP JUMPDEST SWAP3 POP POP DUP2 SWAP1 SSTORE POP POP POP POP JUMP JUMPDEST PUSH0 DUP1 PUSH0 CALLER SWAP1 POP PUSH0 ADDRESS SWAP1 POP DUP2 DUP2 SWAP4 POP SWAP4 POP POP POP SWAP1 SWAP2 JUMP JUMPDEST PUSH0 DUP1 REVERT JUMPDEST PUSH0 PUSH20 0xFFFFFFFFFFFFFFFFFFFFFFFFFFFFFFFFFFFFFFFF DUP3 AND SWAP1 POP SWAP2 SWAP1 POP JUMP JUMPDEST PUSH0 PUSH2 0x21A DUP3 PUSH2 0x1F1 JUMP JUMPDEST SWAP1 POP SWAP2 SWAP1 POP JUMP JUMPDEST PUSH2 0x22A DUP2 PUSH2 0x210 JUMP JUMPDEST DUP2 EQ PUSH2 0x234 JUMPI PUSH0 DUP1 REVERT JUMPDEST POP JUMP JUMPDEST PUSH0 DUP2 CALLDATALOAD SWAP1 POP PUSH2 0x245 DUP2 PUSH2 0x221 JUMP JUMPDEST SWAP3 SWAP2 POP POP JUMP JUMPDEST PUSH0 PUSH1 0x20 DUP3 DUP5 SUB SLT ISZERO PUSH2 0x260 JUMPI PUSH2 0x25F PUSH2 0x1ED JUMP JUMPDEST JUMPDEST PUSH0 PUSH2 0x26D DUP5 DUP3 DUP6 ADD PUSH2 0x237 JUMP JUMPDEST SWAP2 POP POP SWAP3 SWAP2 POP POP JUMP JUMPDEST PUSH0 DUP2 SWAP1 POP SWAP2 SWAP1 POP JUMP JUMPDEST PUSH2 0x288 DUP2 PUSH2 0x276 JUMP JUMPDEST DUP3 MSTORE POP POP JUMP JUMPDEST PUSH0 PUSH1 0x20 DUP3 ADD SWAP1 POP PUSH2 0x2A1 PUSH0 DUP4 ADD DUP5 PUSH2 0x27F JUMP JUMPDEST SWAP3 SWAP2 POP POP JUMP JUMPDEST PUSH2 0x2B0 DUP2 PUSH2 0x276 JUMP JUMPDEST DUP2 EQ PUSH2 0x2BA JUMPI PUSH0 DUP1 REVERT JUMPDEST POP JUMP JUMPDEST PUSH0 DUP2 CALLDATALOAD SWAP1 POP PUSH2 0x2CB DUP2 PUSH2 0x2A7 JUMP JUMPDEST SWAP3 SWAP2 POP POP JUMP JUMPDEST PUSH0 DUP1 PUSH1 0x40 DUP4 DUP6 SUB SLT ISZERO PUSH2 0x2E7 JUMPI PUSH2 0x2E6 PUSH2 0x1ED JUMP JUMPDEST JUMPDEST PUSH0 PUSH2 0x2F4 DUP6 DUP3 DUP7 ADD PUSH2 0x237 JUMP JUMPDEST SWAP3 POP POP PUSH1 0x20 PUSH2 0x305 DUP6 DUP3 DUP7 ADD PUSH2 0x2BD JUMP JUMPDEST SWAP2 POP POP SWAP3 POP SWAP3 SWAP1 POP JUMP JUMPDEST PUSH0 DUP1 PUSH0 PUSH1 0x60 DUP5 DUP7 SUB SLT ISZERO PUSH2 0x326 JUMPI PUSH2 0x325 PUSH2 0x1ED JUMP JUMPDEST JUMPDEST PUSH0 PUSH2 0x333 DUP7 DUP3 DUP8 ADD PUSH2 0x237 JUMP JUMPDEST SWAP4 POP POP PUSH1 0x20 PUSH2 0x344 DUP7 DUP3 DUP8 ADD PUSH2 0x237 JUMP JUMPDEST SWAP3 POP POP PUSH1 0x40 PUSH2 0x355 DUP7 DUP3 DUP8 ADD PUSH2 0x2BD JUMP JUMPDEST SWAP2 POP POP SWAP3 POP SWAP3 POP SWAP3 JUMP JUMPDEST PUSH2 0x368 DUP2 PUSH2 0x210 JUMP JUMPDEST DUP3 MSTORE POP POP JUMP JUMPDEST PUSH0 PUSH1 0x40 DUP3 ADD SWAP1 POP PUSH2 0x381 PUSH0 DUP4 ADD DUP6 PUSH2 0x35F JUMP JUMPDEST PUSH2 0x38E PUSH1 0x20 DUP4 ADD DUP5 PUSH2 0x35F JUMP JUMPDEST SWAP4 SWAP3 POP POP POP JUMP JUMPDEST PUSH32 0x4E487B7100000000000000000000000000000000000000000000000000000000 PUSH0 MSTORE PUSH1 0x11 PUSH1 0x4 MSTORE PUSH1 0x24 PUSH0 REVERT JUMPDEST PUSH0 PUSH2 0x3CC DUP3 PUSH2 0x276 JUMP JUMPDEST SWAP2 POP PUSH2 0x3D7 DUP4 PUSH2 0x276 JUMP JUMPDEST SWAP3 POP DUP3 DUP3 SUB SWAP1 POP DUP2 DUP2 GT ISZERO PUSH2 0x3EF JUMPI PUSH2 0x3EE PUSH2 0x395 JUMP JUMPDEST JUMPDEST SWAP3 SWAP2 POP POP JUMP JUMPDEST PUSH0 PUSH2 0x3FF DUP3 PUSH2 0x276 JUMP JUMPDEST SWAP2 POP PUSH2 0x40A DUP4 PUSH2 0x276 JUMP JUMPDEST SWAP3 POP DUP3 DUP3 ADD SWAP1 POP DUP1 DUP3 GT ISZERO PUSH2 0x422 JUMPI PUSH2 0x421 PUSH2 0x395 JUMP JUMPDEST JUMPDEST SWAP3 SWAP2 POP POP JUMP INVALID LOG2 PUSH5 0x6970667358 0x22 SLT KECCAK256 SWAP7 0xCD 0xE9 0x2B 0x21 SSTORE DELEGATECALL DUP14 AND SWAP14 0xCB MSIZE 0xDE PUSH6 0x22C3A876549E 0x21 RETURN 0xFB 0xD7 JUMPDEST 0xEA 0xD SHL JUMP SWAP3 SLT DUP13 PUSH5 0x736F6C6343 STOP ADDMOD NOT STOP CALLER "
				},
				"gasEstimates": {
					"creation": {
						"codeDepositCost": "223600",
						"executionCost": "261",
						"totalCost": "223861"
					},
					"external": {
						"balances(address)": "2779",
						"setSomeonesBalance(address,uint256)": "22822",
						"transferTokensBetweenAddresses(address,address,uint256)": "infinite",
						"whoami()": "infinite"
					}
				},
				"methodIdentifiers": {
					"balances(address)": "27e235e3",
					"setSomeonesBalance(address,uint256)": "48929b78",
					"transferTokensBetweenAddresses(address,address,uint256)": "a55f800f",
					"whoami()": "b3b36bb3"
				}
			},
			"storageLayout": {
				"storage": [
					{
						"astId": 5,
						"contract": "contracts/msgsendera.daddress.sol:ERC20Token",
						"label": "balances",
						"offset": 0,
						"slot": "0",
						"type": "t_mapping(t_address,t_uint256)"
					}
				],
				"types": {
					"t_address": {
						"encoding": "inplace",
						"label": "address",
						"numberOfBytes": "20"
					},
					"t_mapping(t_address,t_uint256)": {
						"encoding": "mapping",
						"key": "t_address",
						"label": "mapping(address => uint256)",
						"numberOfBytes": "32",
						"value": "t_uint256"
					},
					"t_uint256": {
						"encoding": "inplace",
						"label": "uint256",
						"numberOfBytes": "32"
					}
				}
			},
			"userdoc": {
				"kind": "user",
				"methods": {},
				"version": 1
			}
		}
	}
}