{
	"data": {
		"bytecode": {
			"linkReferences": {},
			"object": "6080604052348015600e575f80fd5b50610b868061001c5f395ff3fe608060405234801561000f575f80fd5b506004361061004a575f3560e01c80636d4ce63c1461004e5780636f792bcc1461006c578063be1c766b14610088578063da2dc4eb146100a6575b5f80fd5b6100566100c2565b604051610063919061041f565b60405180910390f35b6100866004803603810190610081919061057c565b610195565b005b6100906101c9565b60405161009d91906105db565b60405180910390f35b6100c060048036038101906100bb919061061e565b6101d4565b005b60605f805480602002602001604051908101604052809291908181526020015f905b8282101561018c578382905f5260205f2001805461010190610676565b80601f016020809104026020016040519081016040528092919081815260200182805461012d90610676565b80156101785780601f1061014f57610100808354040283529160200191610178565b820191905f5260205f20905b81548152906001019060200180831161015b57829003601f168201915b5050505050815260200190600101906100e4565b50505050905090565b5f81908060018154018082558091505060019003905f5260205f20015f9091909190915090816101c59190610843565b5050565b5f8080549050905090565b5f80549050811061021a576040517f08c379a00000000000000000000000000000000000000000000000000000000081526004016102119061096c565b60405180910390fd5b5f60015f8054905061022c91906109b7565b8154811061023d5761023c6109ea565b5b905f5260205f20015f8281548110610258576102576109ea565b5b905f5260205f2001908161026c9190610a3e565b505f80548061027e5761027d610b23565b5b600190038181905f5260205f20015f610297919061029c565b905550565b5080546102a890610676565b5f825580601f106102b957506102d6565b601f0160209004905f5260205f20908101906102d591906102d9565b5b50565b5b808211156102f0575f815f9055506001016102da565b5090565b5f81519050919050565b5f82825260208201905092915050565b5f819050602082019050919050565b5f81519050919050565b5f82825260208201905092915050565b8281835e5f83830152505050565b5f601f19601f8301169050919050565b5f61035f8261031d565b6103698185610327565b9350610379818560208601610337565b61038281610345565b840191505092915050565b5f6103988383610355565b905092915050565b5f602082019050919050565b5f6103b6826102f4565b6103c081856102fe565b9350836020820285016103d28561030e565b805f5b8581101561040d57848403895281516103ee858261038d565b94506103f9836103a0565b925060208a019950506001810190506103d5565b50829750879550505050505092915050565b5f6020820190508181035f83015261043781846103ac565b905092915050565b5f604051905090565b5f80fd5b5f80fd5b5f80fd5b5f80fd5b7f4e487b71000000000000000000000000000000000000000000000000000000005f52604160045260245ffd5b61048e82610345565b810181811067ffffffffffffffff821117156104ad576104ac610458565b5b80604052505050565b5f6104bf61043f565b90506104cb8282610485565b919050565b5f67ffffffffffffffff8211156104ea576104e9610458565b5b6104f382610345565b9050602081019050919050565b828183375f83830152505050565b5f61052061051b846104d0565b6104b6565b90508281526020810184848401111561053c5761053b610454565b5b610547848285610500565b509392505050565b5f82601f83011261056357610562610450565b5b813561057384826020860161050e565b91505092915050565b5f6020828403121561059157610590610448565b5b5f82013567ffffffffffffffff8111156105ae576105ad61044c565b5b6105ba8482850161054f565b91505092915050565b5f819050919050565b6105d5816105c3565b82525050565b5f6020820190506105ee5f8301846105cc565b92915050565b6105fd816105c3565b8114610607575f80fd5b50565b5f81359050610618816105f4565b92915050565b5f6020828403121561063357610632610448565b5b5f6106408482850161060a565b91505092915050565b7f4e487b71000000000000000000000000000000000000000000000000000000005f52602260045260245ffd5b5f600282049050600182168061068d57607f821691505b6020821081036106a05761069f610649565b5b50919050565b5f819050815f5260205f209050919050565b5f6020601f8301049050919050565b5f82821b905092915050565b5f600883026107027fffffffffffffffffffffffffffffffffffffffffffffffffffffffffffffffff826106c7565b61070c86836106c7565b95508019841693508086168417925050509392505050565b5f819050919050565b5f61074761074261073d846105c3565b610724565b6105c3565b9050919050565b5f819050919050565b6107608361072d565b61077461076c8261074e565b8484546106d3565b825550505050565b5f90565b61078861077c565b610793818484610757565b505050565b5b818110156107b6576107ab5f82610780565b600181019050610799565b5050565b601f8211156107fb576107cc816106a6565b6107d5846106b8565b810160208510156107e4578190505b6107f86107f0856106b8565b830182610798565b50505b505050565b5f82821c905092915050565b5f61081b5f1984600802610800565b1980831691505092915050565b5f610833838361080c565b9150826002028217905092915050565b61084c8261031d565b67ffffffffffffffff81111561086557610864610458565b5b61086f8254610676565b61087a8282856107ba565b5f60209050601f8311600181146108ab575f8415610899578287015190505b6108a38582610828565b86555061090a565b601f1984166108b9866106a6565b5f5b828110156108e0578489015182556001820191506020850194506020810190506108bb565b868310156108fd57848901516108f9601f89168261080c565b8355505b6001600288020188555050505b505050505050565b5f82825260208201905092915050565b7f496e646578206f7574206f6620626f756e6473000000000000000000000000005f82015250565b5f610956601383610912565b915061096182610922565b602082019050919050565b5f6020820190508181035f8301526109838161094a565b9050919050565b7f4e487b71000000000000000000000000000000000000000000000000000000005f52601160045260245ffd5b5f6109c1826105c3565b91506109cc836105c3565b92508282039050818111156109e4576109e361098a565b5b92915050565b7f4e487b71000000000000000000000000000000000000000000000000000000005f52603260045260245ffd5b5f81549050610a2581610676565b9050919050565b5f819050815f5260205f209050919050565b818103610a4c575050610b21565b610a5582610a17565b67ffffffffffffffff811115610a6e57610a6d610458565b5b610a788254610676565b610a838282856107ba565b5f601f831160018114610ab0575f8415610a9e578287015490505b610aa88582610828565b865550610b1a565b601f198416610abe87610a2c565b9650610ac9866106a6565b5f5b82811015610af057848901548255600182019150600185019450602081019050610acb565b86831015610b0d5784890154610b09601f89168261080c565b8355505b6001600288020188555050505b5050505050505b565b7f4e487b71000000000000000000000000000000000000000000000000000000005f52603160045260245ffdfea26469706673582212206d9f3057b8e83aae93675656c910d4b5757824013c8cd13e449e7a0c05493a8364736f6c63430008190033",
			"opcodes": "PUSH1 0x80 PUSH1 0x40 MSTORE CALLVALUE DUP1 ISZERO PUSH1 0xE JUMPI PUSH0 DUP1 REVERT JUMPDEST POP PUSH2 0xB86 DUP1 PUSH2 0x1C PUSH0 CODECOPY PUSH0 RETURN INVALID PUSH1 0x80 PUSH1 0x40 MSTORE CALLVALUE DUP1 ISZERO PUSH2 0xF JUMPI PUSH0 DUP1 REVERT JUMPDEST POP PUSH1 0x4 CALLDATASIZE LT PUSH2 0x4A JUMPI PUSH0 CALLDATALOAD PUSH1 0xE0 SHR DUP1 PUSH4 0x6D4CE63C EQ PUSH2 0x4E JUMPI DUP1 PUSH4 0x6F792BCC EQ PUSH2 0x6C JUMPI DUP1 PUSH4 0xBE1C766B EQ PUSH2 0x88 JUMPI DUP1 PUSH4 0xDA2DC4EB EQ PUSH2 0xA6 JUMPI JUMPDEST PUSH0 DUP1 REVERT JUMPDEST PUSH2 0x56 PUSH2 0xC2 JUMP JUMPDEST PUSH1 0x40 MLOAD PUSH2 0x63 SWAP2 SWAP1 PUSH2 0x41F JUMP JUMPDEST PUSH1 0x40 MLOAD DUP1 SWAP2 SUB SWAP1 RETURN JUMPDEST PUSH2 0x86 PUSH1 0x4 DUP1 CALLDATASIZE SUB DUP2 ADD SWAP1 PUSH2 0x81 SWAP2 SWAP1 PUSH2 0x57C JUMP JUMPDEST PUSH2 0x195 JUMP JUMPDEST STOP JUMPDEST PUSH2 0x90 PUSH2 0x1C9 JUMP JUMPDEST PUSH1 0x40 MLOAD PUSH2 0x9D SWAP2 SWAP1 PUSH2 0x5DB JUMP JUMPDEST PUSH1 0x40 MLOAD DUP1 SWAP2 SUB SWAP1 RETURN JUMPDEST PUSH2 0xC0 PUSH1 0x4 DUP1 CALLDATASIZE SUB DUP2 ADD SWAP1 PUSH2 0xBB SWAP2 SWAP1 PUSH2 0x61E JUMP JUMPDEST PUSH2 0x1D4 JUMP JUMPDEST STOP JUMPDEST PUSH1 0x60 PUSH0 DUP1 SLOAD DUP1 PUSH1 0x20 MUL PUSH1 0x20 ADD PUSH1 0x40 MLOAD SWAP1 DUP2 ADD PUSH1 0x40 MSTORE DUP1 SWAP3 SWAP2 SWAP1 DUP2 DUP2 MSTORE PUSH1 0x20 ADD PUSH0 SWAP1 JUMPDEST DUP3 DUP3 LT ISZERO PUSH2 0x18C JUMPI DUP4 DUP3 SWAP1 PUSH0 MSTORE PUSH1 0x20 PUSH0 KECCAK256 ADD DUP1 SLOAD PUSH2 0x101 SWAP1 PUSH2 0x676 JUMP JUMPDEST DUP1 PUSH1 0x1F ADD PUSH1 0x20 DUP1 SWAP2 DIV MUL PUSH1 0x20 ADD PUSH1 0x40 MLOAD SWAP1 DUP2 ADD PUSH1 0x40 MSTORE DUP1 SWAP3 SWAP2 SWAP1 DUP2 DUP2 MSTORE PUSH1 0x20 ADD DUP3 DUP1 SLOAD PUSH2 0x12D SWAP1 PUSH2 0x676 JUMP JUMPDEST DUP1 ISZERO PUSH2 0x178 JUMPI DUP1 PUSH1 0x1F LT PUSH2 0x14F JUMPI PUSH2 0x100 DUP1 DUP4 SLOAD DIV MUL DUP4 MSTORE SWAP2 PUSH1 0x20 ADD SWAP2 PUSH2 0x178 JUMP JUMPDEST DUP3 ADD SWAP2 SWAP1 PUSH0 MSTORE PUSH1 0x20 PUSH0 KECCAK256 SWAP1 JUMPDEST DUP2 SLOAD DUP2 MSTORE SWAP1 PUSH1 0x1 ADD SWAP1 PUSH1 0x20 ADD DUP1 DUP4 GT PUSH2 0x15B JUMPI DUP3 SWAP1 SUB PUSH1 0x1F AND DUP3 ADD SWAP2 JUMPDEST POP POP POP POP POP DUP2 MSTORE PUSH1 0x20 ADD SWAP1 PUSH1 0x1 ADD SWAP1 PUSH2 0xE4 JUMP JUMPDEST POP POP POP POP SWAP1 POP SWAP1 JUMP JUMPDEST PUSH0 DUP2 SWAP1 DUP1 PUSH1 0x1 DUP2 SLOAD ADD DUP1 DUP3 SSTORE DUP1 SWAP2 POP POP PUSH1 0x1 SWAP1 SUB SWAP1 PUSH0 MSTORE PUSH1 0x20 PUSH0 KECCAK256 ADD PUSH0 SWAP1 SWAP2 SWAP1 SWAP2 SWAP1 SWAP2 POP SWAP1 DUP2 PUSH2 0x1C5 SWAP2 SWAP1 PUSH2 0x843 JUMP JUMPDEST POP POP JUMP JUMPDEST PUSH0 DUP1 DUP1 SLOAD SWAP1 POP SWAP1 POP SWAP1 JUMP JUMPDEST PUSH0 DUP1 SLOAD SWAP1 POP DUP2 LT PUSH2 0x21A JUMPI PUSH1 0x40 MLOAD PUSH32 0x8C379A000000000000000000000000000000000000000000000000000000000 DUP2 MSTORE PUSH1 0x4 ADD PUSH2 0x211 SWAP1 PUSH2 0x96C JUMP JUMPDEST PUSH1 0x40 MLOAD DUP1 SWAP2 SUB SWAP1 REVERT JUMPDEST PUSH0 PUSH1 0x1 PUSH0 DUP1 SLOAD SWAP1 POP PUSH2 0x22C SWAP2 SWAP1 PUSH2 0x9B7 JUMP JUMPDEST DUP2 SLOAD DUP2 LT PUSH2 0x23D JUMPI PUSH2 0x23C PUSH2 0x9EA JUMP JUMPDEST JUMPDEST SWAP1 PUSH0 MSTORE PUSH1 0x20 PUSH0 KECCAK256 ADD PUSH0 DUP3 DUP2 SLOAD DUP2 LT PUSH2 0x258 JUMPI PUSH2 0x257 PUSH2 0x9EA JUMP JUMPDEST JUMPDEST SWAP1 PUSH0 MSTORE PUSH1 0x20 PUSH0 KECCAK256 ADD SWAP1 DUP2 PUSH2 0x26C SWAP2 SWAP1 PUSH2 0xA3E JUMP JUMPDEST POP PUSH0 DUP1 SLOAD DUP1 PUSH2 0x27E JUMPI PUSH2 0x27D PUSH2 0xB23 JUMP JUMPDEST JUMPDEST PUSH1 0x1 SWAP1 SUB DUP2 DUP2 SWAP1 PUSH0 MSTORE PUSH1 0x20 PUSH0 KECCAK256 ADD PUSH0 PUSH2 0x297 SWAP2 SWAP1 PUSH2 0x29C JUMP JUMPDEST SWAP1 SSTORE POP JUMP JUMPDEST POP DUP1 SLOAD PUSH2 0x2A8 SWAP1 PUSH2 0x676 JUMP JUMPDEST PUSH0 DUP3 SSTORE DUP1 PUSH1 0x1F LT PUSH2 0x2B9 JUMPI POP PUSH2 0x2D6 JUMP JUMPDEST PUSH1 0x1F ADD PUSH1 0x20 SWAP1 DIV SWAP1 PUSH0 MSTORE PUSH1 0x20 PUSH0 KECCAK256 SWAP1 DUP2 ADD SWAP1 PUSH2 0x2D5 SWAP2 SWAP1 PUSH2 0x2D9 JUMP JUMPDEST JUMPDEST POP JUMP JUMPDEST JUMPDEST DUP1 DUP3 GT ISZERO PUSH2 0x2F0 JUMPI PUSH0 DUP2 PUSH0 SWAP1 SSTORE POP PUSH1 0x1 ADD PUSH2 0x2DA JUMP JUMPDEST POP SWAP1 JUMP JUMPDEST PUSH0 DUP2 MLOAD SWAP1 POP SWAP2 SWAP1 POP JUMP JUMPDEST PUSH0 DUP3 DUP3 MSTORE PUSH1 0x20 DUP3 ADD SWAP1 POP SWAP3 SWAP2 POP POP JUMP JUMPDEST PUSH0 DUP2 SWAP1 POP PUSH1 0x20 DUP3 ADD SWAP1 POP SWAP2 SWAP1 POP JUMP JUMPDEST PUSH0 DUP2 MLOAD SWAP1 POP SWAP2 SWAP1 POP JUMP JUMPDEST PUSH0 DUP3 DUP3 MSTORE PUSH1 0x20 DUP3 ADD SWAP1 POP SWAP3 SWAP2 POP POP JUMP JUMPDEST DUP3 DUP2 DUP4 MCOPY PUSH0 DUP4 DUP4 ADD MSTORE POP POP POP JUMP JUMPDEST PUSH0 PUSH1 0x1F NOT PUSH1 0x1F DUP4 ADD AND SWAP1 POP SWAP2 SWAP1 POP JUMP JUMPDEST PUSH0 PUSH2 0x35F DUP3 PUSH2 0x31D JUMP JUMPDEST PUSH2 0x369 DUP2 DUP6 PUSH2 0x327 JUMP JUMPDEST SWAP4 POP PUSH2 0x379 DUP2 DUP6 PUSH1 0x20 DUP7 ADD PUSH2 0x337 JUMP JUMPDEST PUSH2 0x382 DUP2 PUSH2 0x345 JUMP JUMPDEST DUP5 ADD SWAP2 POP POP SWAP3 SWAP2 POP POP JUMP JUMPDEST PUSH0 PUSH2 0x398 DUP4 DUP4 PUSH2 0x355 JUMP JUMPDEST SWAP1 POP SWAP3 SWAP2 POP POP JUMP JUMPDEST PUSH0 PUSH1 0x20 DUP3 ADD SWAP1 POP SWAP2 SWAP1 POP JUMP JUMPDEST PUSH0 PUSH2 0x3B6 DUP3 PUSH2 0x2F4 JUMP JUMPDEST PUSH2 0x3C0 DUP2 DUP6 PUSH2 0x2FE JUMP JUMPDEST SWAP4 POP DUP4 PUSH1 0x20 DUP3 MUL DUP6 ADD PUSH2 0x3D2 DUP6 PUSH2 0x30E JUMP JUMPDEST DUP1 PUSH0 JUMPDEST DUP6 DUP2 LT ISZERO PUSH2 0x40D JUMPI DUP5 DUP5 SUB DUP10 MSTORE DUP2 MLOAD PUSH2 0x3EE DUP6 DUP3 PUSH2 0x38D JUMP JUMPDEST SWAP5 POP PUSH2 0x3F9 DUP4 PUSH2 0x3A0 JUMP JUMPDEST SWAP3 POP PUSH1 0x20 DUP11 ADD SWAP10 POP POP PUSH1 0x1 DUP2 ADD SWAP1 POP PUSH2 0x3D5 JUMP JUMPDEST POP DUP3 SWAP8 POP DUP8 SWAP6 POP POP POP POP POP POP SWAP3 SWAP2 POP POP JUMP JUMPDEST PUSH0 PUSH1 0x20 DUP3 ADD SWAP1 POP DUP2 DUP2 SUB PUSH0 DUP4 ADD MSTORE PUSH2 0x437 DUP2 DUP5 PUSH2 0x3AC JUMP JUMPDEST SWAP1 POP SWAP3 SWAP2 POP POP JUMP JUMPDEST PUSH0 PUSH1 0x40 MLOAD SWAP1 POP SWAP1 JUMP JUMPDEST PUSH0 DUP1 REVERT JUMPDEST PUSH0 DUP1 REVERT JUMPDEST PUSH0 DUP1 REVERT JUMPDEST PUSH0 DUP1 REVERT JUMPDEST PUSH32 0x4E487B7100000000000000000000000000000000000000000000000000000000 PUSH0 MSTORE PUSH1 0x41 PUSH1 0x4 MSTORE PUSH1 0x24 PUSH0 REVERT JUMPDEST PUSH2 0x48E DUP3 PUSH2 0x345 JUMP JUMPDEST DUP2 ADD DUP2 DUP2 LT PUSH8 0xFFFFFFFFFFFFFFFF DUP3 GT OR ISZERO PUSH2 0x4AD JUMPI PUSH2 0x4AC PUSH2 0x458 JUMP JUMPDEST JUMPDEST DUP1 PUSH1 0x40 MSTORE POP POP POP JUMP JUMPDEST PUSH0 PUSH2 0x4BF PUSH2 0x43F JUMP JUMPDEST SWAP1 POP PUSH2 0x4CB DUP3 DUP3 PUSH2 0x485 JUMP JUMPDEST SWAP2 SWAP1 POP JUMP JUMPDEST PUSH0 PUSH8 0xFFFFFFFFFFFFFFFF DUP3 GT ISZERO PUSH2 0x4EA JUMPI PUSH2 0x4E9 PUSH2 0x458 JUMP JUMPDEST JUMPDEST PUSH2 0x4F3 DUP3 PUSH2 0x345 JUMP JUMPDEST SWAP1 POP PUSH1 0x20 DUP2 ADD SWAP1 POP SWAP2 SWAP1 POP JUMP JUMPDEST DUP3 DUP2 DUP4 CALLDATACOPY PUSH0 DUP4 DUP4 ADD MSTORE POP POP POP JUMP JUMPDEST PUSH0 PUSH2 0x520 PUSH2 0x51B DUP5 PUSH2 0x4D0 JUMP JUMPDEST PUSH2 0x4B6 JUMP JUMPDEST SWAP1 POP DUP3 DUP2 MSTORE PUSH1 0x20 DUP2 ADD DUP5 DUP5 DUP5 ADD GT ISZERO PUSH2 0x53C JUMPI PUSH2 0x53B PUSH2 0x454 JUMP JUMPDEST JUMPDEST PUSH2 0x547 DUP5 DUP3 DUP6 PUSH2 0x500 JUMP JUMPDEST POP SWAP4 SWAP3 POP POP POP JUMP JUMPDEST PUSH0 DUP3 PUSH1 0x1F DUP4 ADD SLT PUSH2 0x563 JUMPI PUSH2 0x562 PUSH2 0x450 JUMP JUMPDEST JUMPDEST DUP2 CALLDATALOAD PUSH2 0x573 DUP5 DUP3 PUSH1 0x20 DUP7 ADD PUSH2 0x50E JUMP JUMPDEST SWAP2 POP POP SWAP3 SWAP2 POP POP JUMP JUMPDEST PUSH0 PUSH1 0x20 DUP3 DUP5 SUB SLT ISZERO PUSH2 0x591 JUMPI PUSH2 0x590 PUSH2 0x448 JUMP JUMPDEST JUMPDEST PUSH0 DUP3 ADD CALLDATALOAD PUSH8 0xFFFFFFFFFFFFFFFF DUP2 GT ISZERO PUSH2 0x5AE JUMPI PUSH2 0x5AD PUSH2 0x44C JUMP JUMPDEST JUMPDEST PUSH2 0x5BA DUP5 DUP3 DUP6 ADD PUSH2 0x54F JUMP JUMPDEST SWAP2 POP POP SWAP3 SWAP2 POP POP JUMP JUMPDEST PUSH0 DUP2 SWAP1 POP SWAP2 SWAP1 POP JUMP JUMPDEST PUSH2 0x5D5 DUP2 PUSH2 0x5C3 JUMP JUMPDEST DUP3 MSTORE POP POP JUMP JUMPDEST PUSH0 PUSH1 0x20 DUP3 ADD SWAP1 POP PUSH2 0x5EE PUSH0 DUP4 ADD DUP5 PUSH2 0x5CC JUMP JUMPDEST SWAP3 SWAP2 POP POP JUMP JUMPDEST PUSH2 0x5FD DUP2 PUSH2 0x5C3 JUMP JUMPDEST DUP2 EQ PUSH2 0x607 JUMPI PUSH0 DUP1 REVERT JUMPDEST POP JUMP JUMPDEST PUSH0 DUP2 CALLDATALOAD SWAP1 POP PUSH2 0x618 DUP2 PUSH2 0x5F4 JUMP JUMPDEST SWAP3 SWAP2 POP POP JUMP JUMPDEST PUSH0 PUSH1 0x20 DUP3 DUP5 SUB SLT ISZERO PUSH2 0x633 JUMPI PUSH2 0x632 PUSH2 0x448 JUMP JUMPDEST JUMPDEST PUSH0 PUSH2 0x640 DUP5 DUP3 DUP6 ADD PUSH2 0x60A JUMP JUMPDEST SWAP2 POP POP SWAP3 SWAP2 POP POP JUMP JUMPDEST PUSH32 0x4E487B7100000000000000000000000000000000000000000000000000000000 PUSH0 MSTORE PUSH1 0x22 PUSH1 0x4 MSTORE PUSH1 0x24 PUSH0 REVERT JUMPDEST PUSH0 PUSH1 0x2 DUP3 DIV SWAP1 POP PUSH1 0x1 DUP3 AND DUP1 PUSH2 0x68D JUMPI PUSH1 0x7F DUP3 AND SWAP2 POP JUMPDEST PUSH1 0x20 DUP3 LT DUP2 SUB PUSH2 0x6A0 JUMPI PUSH2 0x69F PUSH2 0x649 JUMP JUMPDEST JUMPDEST POP SWAP2 SWAP1 POP JUMP JUMPDEST PUSH0 DUP2 SWAP1 POP DUP2 PUSH0 MSTORE PUSH1 0x20 PUSH0 KECCAK256 SWAP1 POP SWAP2 SWAP1 POP JUMP JUMPDEST PUSH0 PUSH1 0x20 PUSH1 0x1F DUP4 ADD DIV SWAP1 POP SWAP2 SWAP1 POP JUMP JUMPDEST PUSH0 DUP3 DUP3 SHL SWAP1 POP SWAP3 SWAP2 POP POP JUMP JUMPDEST PUSH0 PUSH1 0x8 DUP4 MUL PUSH2 0x702 PUSH32 0xFFFFFFFFFFFFFFFFFFFFFFFFFFFFFFFFFFFFFFFFFFFFFFFFFFFFFFFFFFFFFFFF DUP3 PUSH2 0x6C7 JUMP JUMPDEST PUSH2 0x70C DUP7 DUP4 PUSH2 0x6C7 JUMP JUMPDEST SWAP6 POP DUP1 NOT DUP5 AND SWAP4 POP DUP1 DUP7 AND DUP5 OR SWAP3 POP POP POP SWAP4 SWAP3 POP POP POP JUMP JUMPDEST PUSH0 DUP2 SWAP1 POP SWAP2 SWAP1 POP JUMP JUMPDEST PUSH0 PUSH2 0x747 PUSH2 0x742 PUSH2 0x73D DUP5 PUSH2 0x5C3 JUMP JUMPDEST PUSH2 0x724 JUMP JUMPDEST PUSH2 0x5C3 JUMP JUMPDEST SWAP1 POP SWAP2 SWAP1 POP JUMP JUMPDEST PUSH0 DUP2 SWAP1 POP SWAP2 SWAP1 POP JUMP JUMPDEST PUSH2 0x760 DUP4 PUSH2 0x72D JUMP JUMPDEST PUSH2 0x774 PUSH2 0x76C DUP3 PUSH2 0x74E JUMP JUMPDEST DUP5 DUP5 SLOAD PUSH2 0x6D3 JUMP JUMPDEST DUP3 SSTORE POP POP POP POP JUMP JUMPDEST PUSH0 SWAP1 JUMP JUMPDEST PUSH2 0x788 PUSH2 0x77C JUMP JUMPDEST PUSH2 0x793 DUP2 DUP5 DUP5 PUSH2 0x757 JUMP JUMPDEST POP POP POP JUMP JUMPDEST JUMPDEST DUP2 DUP2 LT ISZERO PUSH2 0x7B6 JUMPI PUSH2 0x7AB PUSH0 DUP3 PUSH2 0x780 JUMP JUMPDEST PUSH1 0x1 DUP2 ADD SWAP1 POP PUSH2 0x799 JUMP JUMPDEST POP POP JUMP JUMPDEST PUSH1 0x1F DUP3 GT ISZERO PUSH2 0x7FB JUMPI PUSH2 0x7CC DUP2 PUSH2 0x6A6 JUMP JUMPDEST PUSH2 0x7D5 DUP5 PUSH2 0x6B8 JUMP JUMPDEST DUP2 ADD PUSH1 0x20 DUP6 LT ISZERO PUSH2 0x7E4 JUMPI DUP2 SWAP1 POP JUMPDEST PUSH2 0x7F8 PUSH2 0x7F0 DUP6 PUSH2 0x6B8 JUMP JUMPDEST DUP4 ADD DUP3 PUSH2 0x798 JUMP JUMPDEST POP POP JUMPDEST POP POP POP JUMP JUMPDEST PUSH0 DUP3 DUP3 SHR SWAP1 POP SWAP3 SWAP2 POP POP JUMP JUMPDEST PUSH0 PUSH2 0x81B PUSH0 NOT DUP5 PUSH1 0x8 MUL PUSH2 0x800 JUMP JUMPDEST NOT DUP1 DUP4 AND SWAP2 POP POP SWAP3 SWAP2 POP POP JUMP JUMPDEST PUSH0 PUSH2 0x833 DUP4 DUP4 PUSH2 0x80C JUMP JUMPDEST SWAP2 POP DUP3 PUSH1 0x2 MUL DUP3 OR SWAP1 POP SWAP3 SWAP2 POP POP JUMP JUMPDEST PUSH2 0x84C DUP3 PUSH2 0x31D JUMP JUMPDEST PUSH8 0xFFFFFFFFFFFFFFFF DUP2 GT ISZERO PUSH2 0x865 JUMPI PUSH2 0x864 PUSH2 0x458 JUMP JUMPDEST JUMPDEST PUSH2 0x86F DUP3 SLOAD PUSH2 0x676 JUMP JUMPDEST PUSH2 0x87A DUP3 DUP3 DUP6 PUSH2 0x7BA JUMP JUMPDEST PUSH0 PUSH1 0x20 SWAP1 POP PUSH1 0x1F DUP4 GT PUSH1 0x1 DUP2 EQ PUSH2 0x8AB JUMPI PUSH0 DUP5 ISZERO PUSH2 0x899 JUMPI DUP3 DUP8 ADD MLOAD SWAP1 POP JUMPDEST PUSH2 0x8A3 DUP6 DUP3 PUSH2 0x828 JUMP JUMPDEST DUP7 SSTORE POP PUSH2 0x90A JUMP JUMPDEST PUSH1 0x1F NOT DUP5 AND PUSH2 0x8B9 DUP7 PUSH2 0x6A6 JUMP JUMPDEST PUSH0 JUMPDEST DUP3 DUP2 LT ISZERO PUSH2 0x8E0 JUMPI DUP5 DUP10 ADD MLOAD DUP3 SSTORE PUSH1 0x1 DUP3 ADD SWAP2 POP PUSH1 0x20 DUP6 ADD SWAP5 POP PUSH1 0x20 DUP2 ADD SWAP1 POP PUSH2 0x8BB JUMP JUMPDEST DUP7 DUP4 LT ISZERO PUSH2 0x8FD JUMPI DUP5 DUP10 ADD MLOAD PUSH2 0x8F9 PUSH1 0x1F DUP10 AND DUP3 PUSH2 0x80C JUMP JUMPDEST DUP4 SSTORE POP JUMPDEST PUSH1 0x1 PUSH1 0x2 DUP9 MUL ADD DUP9 SSTORE POP POP POP JUMPDEST POP POP POP POP POP POP JUMP JUMPDEST PUSH0 DUP3 DUP3 MSTORE PUSH1 0x20 DUP3 ADD SWAP1 POP SWAP3 SWAP2 POP POP JUMP JUMPDEST PUSH32 0x496E646578206F7574206F6620626F756E647300000000000000000000000000 PUSH0 DUP3 ADD MSTORE POP JUMP JUMPDEST PUSH0 PUSH2 0x956 PUSH1 0x13 DUP4 PUSH2 0x912 JUMP JUMPDEST SWAP2 POP PUSH2 0x961 DUP3 PUSH2 0x922 JUMP JUMPDEST PUSH1 0x20 DUP3 ADD SWAP1 POP SWAP2 SWAP1 POP JUMP JUMPDEST PUSH0 PUSH1 0x20 DUP3 ADD SWAP1 POP DUP2 DUP2 SUB PUSH0 DUP4 ADD MSTORE PUSH2 0x983 DUP2 PUSH2 0x94A JUMP JUMPDEST SWAP1 POP SWAP2 SWAP1 POP JUMP JUMPDEST PUSH32 0x4E487B7100000000000000000000000000000000000000000000000000000000 PUSH0 MSTORE PUSH1 0x11 PUSH1 0x4 MSTORE PUSH1 0x24 PUSH0 REVERT JUMPDEST PUSH0 PUSH2 0x9C1 DUP3 PUSH2 0x5C3 JUMP JUMPDEST SWAP2 POP PUSH2 0x9CC DUP4 PUSH2 0x5C3 JUMP JUMPDEST SWAP3 POP DUP3 DUP3 SUB SWAP1 POP DUP2 DUP2 GT ISZERO PUSH2 0x9E4 JUMPI PUSH2 0x9E3 PUSH2 0x98A JUMP JUMPDEST JUMPDEST SWAP3 SWAP2 POP POP JUMP JUMPDEST PUSH32 0x4E487B7100000000000000000000000000000000000000000000000000000000 PUSH0 MSTORE PUSH1 0x32 PUSH1 0x4 MSTORE PUSH1 0x24 PUSH0 REVERT JUMPDEST PUSH0 DUP2 SLOAD SWAP1 POP PUSH2 0xA25 DUP2 PUSH2 0x676 JUMP JUMPDEST SWAP1 POP SWAP2 SWAP1 POP JUMP JUMPDEST PUSH0 DUP2 SWAP1 POP DUP2 PUSH0 MSTORE PUSH1 0x20 PUSH0 KECCAK256 SWAP1 POP SWAP2 SWAP1 POP JUMP JUMPDEST DUP2 DUP2 SUB PUSH2 0xA4C JUMPI POP POP PUSH2 0xB21 JUMP JUMPDEST PUSH2 0xA55 DUP3 PUSH2 0xA17 JUMP JUMPDEST PUSH8 0xFFFFFFFFFFFFFFFF DUP2 GT ISZERO PUSH2 0xA6E JUMPI PUSH2 0xA6D PUSH2 0x458 JUMP JUMPDEST JUMPDEST PUSH2 0xA78 DUP3 SLOAD PUSH2 0x676 JUMP JUMPDEST PUSH2 0xA83 DUP3 DUP3 DUP6 PUSH2 0x7BA JUMP JUMPDEST PUSH0 PUSH1 0x1F DUP4 GT PUSH1 0x1 DUP2 EQ PUSH2 0xAB0 JUMPI PUSH0 DUP5 ISZERO PUSH2 0xA9E JUMPI DUP3 DUP8 ADD SLOAD SWAP1 POP JUMPDEST PUSH2 0xAA8 DUP6 DUP3 PUSH2 0x828 JUMP JUMPDEST DUP7 SSTORE POP PUSH2 0xB1A JUMP JUMPDEST PUSH1 0x1F NOT DUP5 AND PUSH2 0xABE DUP8 PUSH2 0xA2C JUMP JUMPDEST SWAP7 POP PUSH2 0xAC9 DUP7 PUSH2 0x6A6 JUMP JUMPDEST PUSH0 JUMPDEST DUP3 DUP2 LT ISZERO PUSH2 0xAF0 JUMPI DUP5 DUP10 ADD SLOAD DUP3 SSTORE PUSH1 0x1 DUP3 ADD SWAP2 POP PUSH1 0x1 DUP6 ADD SWAP5 POP PUSH1 0x20 DUP2 ADD SWAP1 POP PUSH2 0xACB JUMP JUMPDEST DUP7 DUP4 LT ISZERO PUSH2 0xB0D JUMPI DUP5 DUP10 ADD SLOAD PUSH2 0xB09 PUSH1 0x1F DUP10 AND DUP3 PUSH2 0x80C JUMP JUMPDEST DUP4 SSTORE POP JUMPDEST PUSH1 0x1 PUSH1 0x2 DUP9 MUL ADD DUP9 SSTORE POP POP POP JUMPDEST POP POP POP POP POP POP JUMPDEST JUMP JUMPDEST PUSH32 0x4E487B7100000000000000000000000000000000000000000000000000000000 PUSH0 MSTORE PUSH1 0x31 PUSH1 0x4 MSTORE PUSH1 0x24 PUSH0 REVERT INVALID LOG2 PUSH5 0x6970667358 0x22 SLT KECCAK256 PUSH14 0x9F3057B8E83AAE93675656C910D4 0xB5 PUSH22 0x7824013C8CD13E449E7A0C05493A8364736F6C634300 ADDMOD NOT STOP CALLER "
		},
		"gasEstimates": {
			"creation": {
				"codeDepositCost": "590000",
				"executionCost": "623",
				"totalCost": "590623"
			},
			"external": {
				"deleteAtIndex(uint256)": "infinite",
				"get()": "infinite",
				"getLength()": "2462",
				"pushString(string)": "infinite"
			}
		},
		"methodIdentifiers": {
			"deleteAtIndex(uint256)": "da2dc4eb",
			"get()": "6d4ce63c",
			"getLength()": "be1c766b",
			"pushString(string)": "6f792bcc"
		}
	},
	"abi": [
		{
			"inputs": [
				{
					"internalType": "uint256",
					"name": "index",
					"type": "uint256"
				}
			],
			"name": "deleteAtIndex",
			"outputs": [],
			"stateMutability": "nonpayable",
			"type": "function"
		},
		{
			"inputs": [],
			"name": "get",
			"outputs": [
				{
					"internalType": "string[]",
					"name": "",
					"type": "string[]"
				}
			],
			"stateMutability": "view",
			"type": "function"
		},
		{
			"inputs": [],
			"name": "getLength",
			"outputs": [
				{
					"internalType": "uint256",
					"name": "",
					"type": "uint256"
				}
			],
			"stateMutability": "view",
			"type": "function"
		},
		{
			"inputs": [
				{
					"internalType": "string",
					"name": "str",
					"type": "string"
				}
			],
			"name": "pushString",
			"outputs": [],
			"stateMutability": "nonpayable",
			"type": "function"
		}
	]
}